:100000000C942A000C9447000C9447000C94470071
:100010000C9447000C9447000C9447000C94470044
:100020000C9447000C9447000C94692D0C944700E5
:100030000C9447000C9447000C9447000C94470024
:100040000C9447000C9447000C9447000C94470014
:100050000C94470011241FBECFE5D8E0DEBFCDBF12
:1000600012E0A0E6B0E0E2E2F2E602C005900D92F6
:10007000AA38B107D9F712E0AAE8B2E001C01D9290
:10008000AD38B107E1F70E94BF0F0C940F310C940B
:100090000000EF92FF920F931F937B018C0120E0F1
:1000A00030E040E05FE40E94F50388238CF0C80153
:1000B000B70120E030E040E05FE40E94C1010E940F
:1000C00055049B01AC01205030404040504806C0D0
:1000D000C801B7010E9455049B01AC01B901CA01D6
:1000E0001F910F91FF90EF900895A0E0B0E0EBE733
:1000F000F0E00C94D830DC012B01FA019C91923095
:1001000008F439C1EB018881823008F433C194309E
:1001100069F4843009F02FC111969C91119789815F
:10012000981709F428C1A1E7B2E025C1843009F489
:1001300021C18230A9F4923009F01DC19A01AD01AC
:1001400088E0EA010990AE01E90109929E0181501F
:10015000C1F7E201898111969C918923818308C1AD
:10016000923009F407C112962D903C901397EB0141
:100170008A819B811496AD90BD90CD90DC901797AD
:10018000EC80FD800E811F819101281B390BB90184
:1001900037FF04C066277727621B730B6032710537
:1001A0000CF061C0121613066CF537014801062EDB
:1001B00004C096948794779467940A94D2F721E0C8
:1001C00030E040E050E004C0220F331F441F551FB1
:1001D0006A95D2F721503040404050402E213F21B7
:1001E00040235123211531054105510521F021E01E
:1001F00030E040E050E079018A01E628F72808293C
:1002000019293CC0232BD1F1260E371E350146019A
:10021000062E04C096948794779467940A94D2F734
:1002200021E030E040E050E004C0220F331F441FC3
:10023000551F6A95D2F721503040404050402A2146
:100240003B214C215D21211531054105510521F04E
:1002500021E030E040E050E059016A01A628B728CB
:10026000C828D9280BC0821593052CF01C01AA249C
:10027000BB24650103C0EE24FF24870111969C91E5
:10028000D20111968C91981709F445C0992339F041
:10029000A80197012A193B094C095D0906C0A6016E
:1002A00095012E193F09400B510B57FD08C01182D3
:1002B0003382228224833583468357831DC081E0A5
:1002C00081833382228288279927DC01821B930B4A
:1002D000A40BB50B84839583A683B7830DC0220F2F
:1002E000331F441F551F24833583468357838281E0
:1002F000938101979383828324813581468157813D
:10030000DA01C9010197A109B1098F5F9F4FAF4F72
:10031000BF4328F30BC0918333822282EA0CFB1C7B
:100320000C1D1D1DE482F5820683178383E0808304
:10033000248135814681578157FF1AC0C901AA27F8
:1003400097FDA095BA2F81709070A070B0705695EF
:10035000479537952795822B932BA42BB52B848318
:100360009583A683B7838281938101969383828349
:10037000DF0101C0D201CD01CDB7DEB7E2E10C94BF
:10038000F430A0E2B0E0E7ECF1E00C94E4306983F3
:100390007A838B839C832D833E834F835887E9E048
:1003A000EE2EF12CEC0EFD1ECE010196B7010E943F
:1003B0007E058E010F5E1F4FCE010596B8010E948B
:1003C0007E058A8991E089278A8BC701B801AE0131
:1003D000475E5F4F0E9475000E94A904A096E6E068
:1003E0000C940031A0E2B0E0E8EFF1E00C94E430CE
:1003F00069837A838B839C832D833E834F835887C5
:10040000F9E0EF2EF12CEC0EFD1ECE010196B701A6
:100410000E947E058E010F5E1F4FCE010596B8012A
:100420000E947E05C701B801AE01475E5F4F0E9482
:1004300075000E94A904A096E6E00C940031A0E2A9
:10044000B0E0E5E2F2E00C94D83069837A838B83E4
:100450009C832D833E834F835887CE010196BE0136
:10046000675F7F4F0E947E05CE010596BE016F5EDD
:100470007F4F0E947E059985923088F0898982306D
:10048000C8F0943019F4823051F404C0843029F457
:10049000923081F481E792E0C6C0923049F420E0C6
:1004A0009A858A89981321E02A87CE010996BBC0D4
:1004B000823049F420E09A858A89981321E02A8BBA
:1004C000CE014196B0C02D843E844F8458886D88FB
:1004D0007E888F88988CEE24FF248701AA24BB2471
:1004E000650140E050E060E070E0E0E0F0E0C10174
:1004F00081709070892BE9F0E60CF71C081D191D1E
:100500009A01AB012A0D3B1D4C1D5D1D80E090E062
:10051000A0E0B0E0E614F7040805190520F481E036
:1005200090E0A0E0B0E0BA01A901480F591F6A1F8E
:100530007B1FAA0CBB1CCC1CDD1C97FE08C081E0F5
:1005400090E0A0E0B0E0A82AB92ACA2ADB2A3196B6
:10055000E032F10549F0660C771C881C991C569412
:10056000479437942794C3CFFA85EA892B893C892D
:100570008B859C85280F391F2E5F3F4F17C0CA01FE
:1005800081709070892B61F016950795F794E79428
:1005900080E090E0A0E0B0E8E82AF92A0A2B1B2BC3
:1005A00076956795579547952F5F3F4F77FDE7CF36
:1005B0000CC0440F551F661F771F17FD4160EE0CDE
:1005C000FF1C001F111F21503040403090E05907A0
:1005D00090E0690790E4790760F32B8F3C8FDB0193
:1005E000CA018F779070A070B07080349105A1051A
:1005F000B10561F447FD0AC0E114F10401051105DC
:1006000029F0405C5F4F6F4F7F4F40781A8EFE1786
:1006100011F081E08A8F4D8F5E8F6F8F78A383E01A
:10062000898FCE0149960E94A904A096E2E10C941C
:10063000F430A8E1B0E0EFE1F3E00C94E03069833E
:100640007A838B839C832D833E834F835887B9E0C5
:10065000EB2EF12CEC0EFD1ECE010196B7010E948F
:100660007E058E010F5E1F4FCE010596B8010E94D8
:100670007E052985223008F47EC03989323010F495
:10068000B8017CC08A859A8989278A87243011F02D
:10069000223031F4231709F06EC061E772E06EC0BA
:1006A000343039F41D861E861F86188A1C861B86E8
:1006B00004C0323021F484E08987B7015FC02B8504
:1006C0003C858B899C89281B390B3C872B87ED84C3
:1006D000FE840F851889AD88BE88CF88D88CEA142F
:1006E000FB040C051D0540F4EE0CFF1C001F111F40
:1006F000215030403C872B8720E030E040E050E044
:1007000080E090E0A0E0B0E460E070E0EA14FB0478
:100710000C051D0540F0282B392B4A2B5B2BEA18C2
:10072000FB080C091D09B695A79597958795EE0CC2
:10073000FF1C001F111F6F5F7F4F6F31710531F775
:10074000DA01C9018F779070A070B0708034910584
:10075000A105B10561F427FD0AC0E114F10401050A
:10076000110529F0205C3F4F4F4F5F4F20782D87B8
:100770003E874F87588BBE01675F7F4FCB010E943A
:10078000A9046896EAE00C94FC30A8E1B0E0EBEC38
:10079000F3E00C94E43069837A838B839C832D830C
:1007A0003E834F83588789E0E82EF12CEC0EFD1E26
:1007B000CE010196B7010E947E058E010F5E1F4F8C
:1007C000CE010596B8010E947E058985823040F0F1
:1007D0008989823028F0C701B8010E94F60501C05E
:1007E0008FEF6896E6E00C940031A8E1B0E0EBEF03
:1007F000F3E00C94E43069837A838B839C832D83AC
:100800003E834F83588789E0E82EF12CEC0EFD1EC5
:10081000CE010196B7010E947E058E010F5E1F4F2B
:10082000CE010596B8010E947E058985823040F090
:100830008989823028F0C701B8010E94F60501C0FD
:100840008FEF6896E6E00C940031A8E1B0E0EBE2AF
:10085000F4E00C94E43069837A838B839C832D834A
:100860003E834F83588789E0E82EF12CEC0EFD1E65
:10087000CE010196B7010E947E058E010F5E1F4FCB
:10088000CE010596B8010E947E058985823040F030
:100890008989823028F0C701B8010E94F60501C09D
:1008A00081E06896E6E00C940031ACE0B0E0EBE566
:1008B000F4E00C94E83069837A838B839C83CE01C7
:1008C0000196BE016B5F7F4F0E947E058D81823055
:1008D00061F1823050F1843021F48E81882351F10E
:1008E0002EC02F81388537FD20C06E812F31310514
:1008F0001CF06623F9F023C08EE190E0821B930B7D
:1009000029853A854B855C8504C056954795379572
:1009100027958A95D2F76623B1F05095409530958A
:1009200021953F4F4F4F5F4F0EC020E030E040E039
:1009300050E009C02FEF3FEF4FEF5FE704C020E02A
:1009400030E040E050E8B901CA012C96E2E00C9496
:100950000431DF92EF92FF920F931F93FC01E4802A
:10096000F58006811781D1808081823048F480E053
:1009700090E0A0E1B0E0E82AF92A0A2B1B2BA5C0E1
:10098000843009F49FC0823021F4EE24FF248701D3
:1009900005C0E114F1040105110519F4E0E0F0E0EF
:1009A00096C0628173819FEF623879070CF05BC05B
:1009B00022E83FEF261B370B2A3131052CF020E0CF
:1009C00030E040E050E02AC0B801A701022E04C088
:1009D00076956795579547950A94D2F781E090E010
:1009E000A0E0B0E004C0880F991FAA1FBB1F2A9582
:1009F000D2F70197A109B1098E219F21A023B1232C
:100A00000097A105B10521F081E090E0A0E0B0E001
:100A10009A01AB01282B392B4A2B5B2BDA01C90138
:100A20008F779070A070B07080349105A105B105EA
:100A300039F427FF09C0205C3F4F4F4F5F4F04C080
:100A4000215C3F4F4F4F5F4FE0E0F0E02030A0E0EF
:100A50003A07A0E04A07A0E45A0710F0E1E0F0E00E
:100A600079018A0127C06038710564F5FB01E158FE
:100A7000FF4FD801C7018F779070A070B07080349D
:100A80009105A105B10539F4E7FE0DC080E490E0C1
:100A9000A0E0B0E004C08FE390E0A0E0B0E0E80E9A
:100AA000F91E0A1F1B1F17FF05C016950795F7941F
:100AB000E794319687E016950795F794E7948A9521
:100AC000D1F705C0EE24FF248701EFEFF0E06E2F91
:100AD000679566276795902F9F77D794DD24D794E5
:100AE0008E2F8695492F462B582F5D29B701CA01B5
:100AF0001F910F91FF90EF90DF900895FC01DB01B3
:100B0000408151812281622F6F7770E0221F22275E
:100B1000221F9381892F880F822B282F30E0991F65
:100B20009927991F11969C93119721153105A9F5C5
:100B3000411551056105710511F482E037C082E865
:100B40009FEF13969C938E9312979A01AB0167E0E7
:100B5000220F331F441F551F6A95D1F783E08C93F2
:100B60000DC0220F331F441F551F12968D919C916B
:100B70001397019713969C938E931297203080E0E1
:100B8000380780E0480780E4580758F314962D93FF
:100B90003D934D935C93179708952F3F310579F45A
:100BA000411551056105710519F484E08C93089590
:100BB00064FF03C081E08C9312C01C9210C02F57B9
:100BC000304013963C932E93129783E08C9387E0EA
:100BD000440F551F661F771F8A95D1F770641496CE
:100BE0004D935D936D937C93179708951F93DC014C
:100BF000FB019C91923008F447C08081823008F458
:100C000043C0943051F411961C91843099F5818140
:100C1000682F70E0611B71093FC0843021F0923071
:100C200031F48230B9F18181882389F12DC0119688
:100C30001C9111978230F1F081811817D9F4129626
:100C40002D913C911397828193818217930794F0A1
:100C500028173907BCF014968D919D910D90BC9189
:100C6000A02D2481358146815781281739074A07ED
:100C70005B0718F4112341F00AC082179307A407F9
:100C8000B50740F4112319F061E070E005C06FEF83
:100C90007FEF02C060E070E0CB011F910895DF9309
:100CA000CF93CDB7DEB727970FB6F894DEBF0FBE50
:100CB000CDBF89836A834B838981843008F0EEC07D
:100CC0008A81883008F0EAC08B81813009F06FC0DA
:100CD0008981282F30E03F832E838E819F81813050
:100CE000910549F12E813F81223031052CF48E810E
:100CF0009F81009761F0D2C02E813F812230310563
:100D000071F18E819F8183309105E9F1C7C0AAE31B
:100D1000B0E0EAE3F0E08081482F8A81282F30E0BC
:100D200081E090E0022E02C0880F991F0A94E2F73A
:100D3000842B8C93B3C0A7E3B0E0E7E3F0E08081BD
:100D4000482F8A81282F30E081E090E0022E02C0F7
:100D5000880F991F0A94E2F7842B8C939FC0A4E319
:100D6000B0E0E4E3F0E08081482F8A81282F30E072
:100D700081E090E0022E02C0880F991F0A94E2F7EA
:100D8000842B8C938BC0A1E3B0E0E1E3F0E08081A1
:100D9000482F8A81282F30E081E090E0022E02C0A7
:100DA000880F991F0A94E2F7842B8C9377C08B816C
:100DB000882309F073C08981282F30E03D832C837C
:100DC0008C819D818130910559F12C813D812230AA
:100DD00031052CF48C819D81009769F05FC02C81D6
:100DE0003D812230310589F18C819D8183309105CF
:100DF00009F440C053C0AAE3B0E0EAE3F0E0808128
:100E0000482F8A81282F30E081E090E0022E02C036
:100E1000880F991F0A94E2F7809584238C933EC033
:100E2000A7E3B0E0E7E3F0E08081482F8A81282F34
:100E300030E081E090E0022E02C0880F991F0A94F2
:100E4000E2F7809584238C9329C0A4E3B0E0E4E327
:100E5000F0E08081482F8A81282F30E081E090E007
:100E6000022E02C0880F991F0A94E2F7809584230E
:100E70008C9314C0A1E3B0E0E1E3F0E08081482F5F
:100E80008A81282F30E081E090E0022E02C0880F96
:100E9000991F0A94E2F7809584238C9327960FB6C6
:100EA000F894DEBF0FBECDBFCF91DF910895DF93E1
:100EB000CF93CDB7DEB727970FB6F894DEBF0FBE3E
:100EC000CDBF89836A834B838981843008F0EEC06B
:100ED0008A81883008F0EAC08B81882309F074C0C9
:100EE0008981282F30E03F832E838E819F8181303E
:100EF000910559F12E813F81223031052CF48E81EC
:100F00009F81009769F0D2C02E813F812230310548
:100F100089F18E819F818330910509F440C0C6C05C
:100F2000ABE3B0E0EBE3F0E08081482F8A81282F2B
:100F300030E081E090E0022E02C0880F991F0A94F1
:100F4000E2F7809584238C93B1C0A8E3B0E0E8E396
:100F5000F0E08081482F8A81282F30E081E090E006
:100F6000022E02C0880F991F0A94E2F7809584230D
:100F70008C939CC0A5E3B0E0E5E3F0E08081482FCE
:100F80008A81282F30E081E090E0022E02C0880F95
:100F9000991F0A94E2F7809584238C9387C0A2E37B
:100FA000B0E0E2E3F0E08081482F8A81282F30E032
:100FB00081E090E0022E02C0880F991F0A94E2F7A8
:100FC000809584238C9372C08B81813009F06EC030
:100FD0008981282F30E03D832C838C819D81813055
:100FE000910549F12C813D81223031052CF48C8111
:100FF0009D81009761F05AC02C813D8122303105DE
:1010000071F18C819D8183309105E9F14FC0ABE393
:10101000B0E0EBE3F0E08081482F8A81282F30E0B8
:1010200081E090E0022E02C0880F991F0A94E2F737
:10103000842B8C933BC0A8E3B0E0E8E3F0E0808130
:10104000482F8A81282F30E081E090E0022E02C0F4
:10105000880F991F0A94E2F7842B8C9327C0A5E38D
:10106000B0E0E5E3F0E08081482F8A81282F30E06E
:1010700081E090E0022E02C0880F991F0A94E2F7E7
:10108000842B8C9313C0A2E3B0E0E2E3F0E0808114
:10109000482F8A81282F30E081E090E0022E02C0A4
:1010A000880F991F0A94E2F7842B8C9327960FB62A
:1010B000F894DEBF0FBECDBFCF91DF910895DF93CF
:1010C000CF9300D000D00F92CDB7DEB78A836B8369
:1010D00019828A81843008F06CC08B81883008F0D6
:1010E00068C08A81282F30E03D832C834C815D814C
:1010F0004130510541F18C819D818230910534F45C
:101100002C813D812115310561F055C04C815D81F7
:101110004230510551F18C819D8183309105B9F1A7
:101120004AC0E9E3F0E08081282F30E08B81882FEE
:1011300090E0A90102C0559547958A95E2F7CA014A
:101140008170898338C0E6E3F0E08081282F30E0A9
:101150008B81882F90E0A90102C0559547958A950B
:10116000E2F7CA018170898326C0E3E3F0E0808161
:10117000282F30E08B81882F90E0A90102C055957F
:1011800047958A95E2F7CA018170898314C0E0E32C
:10119000F0E08081282F30E08B81882F90E0A9013A
:1011A00002C0559547958A95E2F7CA0181708983F7
:1011B00002C08FEF898389810F900F900F900F905D
:1011C0000F90CF91DF910895DF93CF9300D000D09F
:1011D000CDB7DEB789836A838981843008F072C015
:1011E0008A81883008F06EC08981282F30E03C83E6
:1011F0002B838B819C818130910549F12B813C812E
:10120000223031052CF48B819C81009761F05AC00B
:101210002B813C812230310571F18B819C8183309F
:101220009105E9F14FC0ABE3B0E0EBE3F0E0808182
:10123000482F8A81282F30E081E090E0022E02C002
:10124000880F991F0A94E2F784278C933BC0A8E388
:10125000B0E0E8E3F0E08081482F8A81282F30E079
:1012600081E090E0022E02C0880F991F0A94E2F7F5
:1012700084278C9327C0A5E3B0E0E5E3F0E080810C
:10128000482F8A81282F30E081E090E0022E02C0B2
:10129000880F991F0A94E2F784278C9313C0A2E366
:1012A000B0E0E2E3F0E08081482F8A81282F30E02F
:1012B00081E090E0022E02C0880F991F0A94E2F7A5
:1012C00084278C930F900F900F900F90CF91DF9108
:1012D0000895DF93CF9300D0CDB7DEB79A8389838B
:1012E000ECE3F0E08081882F90E08270907095951B
:1012F000879581309105A1F3EEE3F0E089819A8131
:1013000091838083ACE3B0E0ECE3F0E08081816026
:101310008C93EDE3F0E080810F900F90CF91DF91FF
:101320000895DF93CF93CDB7DEB728970FB6F89423
:10133000DEBF0FBECDBF9C838B837E836D835887BA
:101340004F83ECE3F0E08081882F90E08270907012
:101350009595879581309105A1F31A82198221C054
:10136000EEE3F0E02B813C8189819A81820F931F0B
:1013700091838083ACE3B0E0ECE3F0E080818160B6
:101380008C932D813E8189819A81D901A80FB91F43
:10139000EDE3F0E080818C9389819A8101969A83B4
:1013A000898329813A818F81988528173907C0F26E
:1013B00028960FB6F894DEBF0FBECDBFCF91DF9158
:1013C0000895DF93CF9300D00F92CDB7DEB79A8305
:1013D00089836B83ECE3F0E08081882F90E082705A
:1013E00090709595879581309105A1F3EEE3F0E03B
:1013F00089819A8191838083ACE3B0E0ECE3F0E0F3
:10140000808181608C93EDE3F0E090818B8198176F
:1014100091F0EDE3F0E08B818083ACE3B0E0ECE3AE
:10142000F0E0808184608C93ACE3B0E0ECE3F0E02A
:10143000808182608C930F900F900F90CF91DF91FD
:101440000895DF93CF93CDB7DEB728970FB6F89402
:10145000DEBF0FBECDBF9C838B837E836D83588799
:101460004F831A82198248C0ECE3F0E08081882F14
:1014700090E0827090709595879581309105A1F3E9
:10148000EEE3F0E02B813C8189819A81820F931FEA
:1014900091838083ACE3B0E0ECE3F0E08081816095
:1014A0008C93EDE3F0E040812D813E8189819A812A
:1014B000F901E80FF91F80814817C9F0ADE3B0E0EA
:1014C0002D813E8189819A81F901E80FF91F808180
:1014D0008C93ACE3B0E0ECE3F0E0808184608C932B
:1014E000ACE3B0E0ECE3F0E0808182608C93898132
:1014F0009A8101969A83898329813A818F8198857F
:101500002817390708F4B0CF28960FB6F894DEBF35
:101510000FBECDBFCF91DF910895DF93CF93CDB7AD
:10152000DEB72E970FB6F894DEBF0FBECDBF80E0BA
:1015300060E041E00E944F0680E061E041E00E94EF
:101540004F0680E062E041E00E944F0680E063E0E9
:1015500041E00E944F0680E064E041E00E944F06B7
:1015600080E065E041E00E944F0680E066E041E0F7
:101570000E944F0680E067E041E00E944F0681E054
:1015800061E041E00E944F0681E062E041E00E949C
:101590004F0681E060E041E00E944F0681E062E09A
:1015A00040E00E94570788E30E94570B8EE00E949C
:1015B000570B81E00E94570B80E090E0A0E2B1E47D
:1015C0008B879C87AD87BE876B857C858D859E8547
:1015D00020E030E04AE755E40E941F02DC01CB0125
:1015E0008F839887A987BA876F81788589859A853F
:1015F00020E030E040E85FE30E94250488232CF4DB
:1016000081E090E09E838D833FC06F8178858985DE
:101610009A8520E03FEF4FE757E40E94C503181674
:101620004CF56B857C858D859E8520E030E040E221
:1016300051E40E941F02DC01CB01BC01CD010E94DC
:101640004900DC01CB019E838D830FC080E991E0CE
:101650009C838B838B819C810197F1F79C838B8387
:101660008D819E8101979E838D838D819E810097C0
:1016700069F714C06F81788589859A850E94490031
:10168000DC01CB019E838D838D819E819A8389832A
:1016900089819A810197F1F79A8389832E960FB6F3
:1016A000F894DEBF0FBECDBFCF91DF910895DF93D9
:1016B000CF93CDB7DEB76D970FB6F894DEBF0FBEF0
:1016C000CDBF8D8FEBE3F0E08D8D808381E061E015
:1016D00040E00E94570781E060E041E00E94570728
:1016E00080E090E0A0E0B0E4898F9A8FAB8FBC8F50
:1016F000698D7A8D8B8D9C8D20E030E04AE755E432
:101700000E941F02DC01CB018D8B9E8BAF8BB88FAB
:101710006D897E898F89988D20E030E040E85FE315
:101720000E94250488232CF481E090E09C8B8B8B15
:101730003FC06D897E898F89988D20E03FEF4FE70C
:1017400057E40E94C50318164CF5698D7A8D8B8D70
:101750009C8D20E030E040E251E40E941F02DC0159
:10176000CB01BC01CD010E944900DC01CB019C8B67
:101770008B8B0FC080E991E09A8B898B89899A893C
:101780000197F1F79A8B898B8B899C8901979C8BA8
:101790008B8B8B899C89009769F714C06D897E8932
:1017A0008F89988D0E944900DC01CB019C8B8B8B2B
:1017B0008B899C89988B8F878F8598890197F1F702
:1017C000988B8F8781E060E040E00E94570780E0BF
:1017D00090E0A0E0B0E48B879C87AD87BE876B85E7
:1017E0007C858D859E8520E030E04AE755E40E94A7
:1017F0001F02DC01CB018F839887A987BA876F818D
:10180000788589859A8520E030E040E85FE30E9492
:10181000250488232CF481E090E09E838D833FC0D3
:101820006F81788589859A8520E03FEF4FE757E4FF
:101830000E94C50318164CF56B857C858D859E85A9
:1018400020E030E040E251E40E941F02DC01CB01C5
:10185000BC01CD010E944900DC01CB019E838D8338
:101860000FC080E991E09C838B838B819C810197E1
:10187000F1F79C838B838D819E8101979E838D835D
:101880008D819E81009769F714C06F817885898565
:101890009A850E944900DC01CB019E838D838D8156
:1018A0009E819A83898389819A810197F1F79A832E
:1018B00089836D960FB6F894DEBF0FBECDBFCF9172
:1018C000DF910895DF93CF93CDB7DEB76D970FB655
:1018D000F894DEBF0FBECDBF8D8FEBE3F0E08D8DB2
:1018E000808381E061E041E00E94570781E060E091
:1018F00041E00E94570780E090E0A0E0B0E4898FCB
:101900009A8FAB8FBC8F698D7A8D8B8D9C8D20E0EB
:1019100030E04AE755E40E941F02DC01CB018D8BC9
:101920009E8BAF8BB88F6D897E898F89988D20E0D3
:1019300030E040E85FE30E94250488232CF481E036
:1019400090E09C8B8B8B3FC06D897E898F89988DB1
:1019500020E03FEF4FE757E40E94C50318164CF50F
:10196000698D7A8D8B8D9C8D20E030E040E251E4D2
:101970000E941F02DC01CB01BC01CD010E94490085
:10198000DC01CB019C8B8B8B0FC080E991E09A8BA3
:10199000898B89899A890197F1F79A8B898B8B8931
:1019A0009C8901979C8B8B8B8B899C89009769F70D
:1019B00014C06D897E898F89988D0E944900DC0151
:1019C000CB019C8B8B8B8B899C89988B8F878F8588
:1019D00098890197F1F7988B8F8781E060E040E06C
:1019E0000E94570780E090E0A0E0B0E48B879C87DE
:1019F000AD87BE876B857C858D859E8520E030E038
:101A00004AE755E40E941F02DC01CB018F839887CF
:101A1000A987BA876F81788589859A8520E030E02B
:101A200040E85FE30E94250488232CF481E090E0E5
:101A30009E838D833FC06F81788589859A8520E05C
:101A40003FEF4FE757E40E94C50318164CF56B852E
:101A50007C858D859E8520E030E040E251E40E9447
:101A60001F02DC01CB01BC01CD010E944900DC0159
:101A7000CB019E838D830FC080E991E09C838B8393
:101A80008B819C810197F1F79C838B838D819E8153
:101A900001979E838D838D819E81009769F714C085
:101AA0006F81788589859A850E944900DC01CB0188
:101AB0009E838D838D819E819A83898389819A817A
:101AC0000197F1F79A8389836D960FB6F894DEBF7C
:101AD0000FBECDBFCF91DF910895DF93CF9300D09C
:101AE0000F92CDB7DEB79B838A8319820EC089819E
:101AF000282F30E08A819B81FC01E20FF31F808157
:101B00000E94620C89818F5F89838981282F30E050
:101B10008A819B81FC01E20FF31F8081882339F7C2
:101B20000F900F900F90CF91DF910895DF93CF9397
:101B3000CDB7DEB781E00E94570BCF91DF910895BA
:101B4000DF93CF9300D00F92CDB7DEB78A836B833C
:101B50008A81813019F480E8898305C08A818230C6
:101B600011F480EC89839B818981890F815089835D
:101B700089810E94570B0F900F900F90CF91DF91AA
:101B80000895DF93CF9300D0CDB7DEB789836A8302
:101B900089816A8141E00E944F060F900F90CF919A
:101BA000DF910895DF93CF9300D0CDB7DEB789835F
:101BB0006A8389816A8141E00E9457070F900F90E4
:101BC000CF91DF910895DF93CF9300D0CDB7DEB7EB
:101BD00089836A8389816A8140E00E9457070F9058
:101BE0000F90CF91DF910895DF93CF9300D0CDB7C1
:101BF000DEB789836A8389816A810E94E4080F9035
:101C00000F90CF91DF910895DF93CF9300D0CDB7A0
:101C1000DEB789836A8389816A810E945F080F9099
:101C20000F90CF91DF910895DF93CF93CDB7DEB7BB
:101C300081E064E041E00E944F0681E065E041E020
:101C40000E944F0681E067E041E00E944F0681E07C
:101C500066E040E00E944F06ADE2B0E0EDE2F0E069
:101C6000808180618C93ADE2B0E0EDE2F0E08081B4
:101C700081608C93ADE2B0E0EDE2F0E080818064C1
:101C80008C93ADE2B0E0EDE2F0E08081877F8C9351
:101C9000CF91DF910895DF93CF93CDB7DEB781E089
:101CA00066E041E00E944F0681E064E040E00E946F
:101CB0004F0681E065E040E00E944F0681E067E06A
:101CC00040E00E944F06ADE2B0E0EDE2F0E080813E
:101CD0008F7E8C93ADE2B0E0EDE2F0E08081806435
:101CE0008C93CF91DF910895DF93CF930F92CDB76F
:101CF000DEB78983EFE2F0E089818083EEE2F0E0F5
:101D000080818823DCF7EFE2F0E080810F90CF91B3
:101D1000DF910895DF93CF93CDB7DEB783E060E026
:101D200041E00E944F0683E061E041E00E944F06DF
:101D300083E062E041E00E944F0683E063E041E01F
:101D40000E944F0683E064E040E00E944F0683E07B
:101D500065E040E00E944F0683E066E040E00E94BC
:101D60004F0683E067E040E00E944F0683E064E0B6
:101D700041E00E94570783E065E041E00E94570779
:101D800083E066E041E00E94570783E067E041E0BE
:101D90000E945707CF91DF910895DF93CF93CDB77E
:101DA000DEB7A7970FB6F894DEBF0FBECDBF8FEF9B
:101DB0008A8BCE0143969CA38BA3E9E7F2E0FEA3B6
:101DC000EDA3F0E1FFA3EDA1FEA100808DA19EA1F6
:101DD00001969EA38DA3EBA1FCA100828BA19CA1E7
:101DE00001969CA38BA39FA191509FA3EFA1EE23EB
:101DF00051F7198AB6C083E060E041E00E945707BE
:101E000083E061E041E00E94570783E062E041E047
:101E10000E94570783E063E041E00E94570780E09B
:101E200090E0A0EAB1E48B879C87AD87BE876B8585
:101E30007C858D859E8520E030E04AE755E40E9450
:101E40001F02DC01CB018F839887A987BA876F8136
:101E5000788589859A8520E030E040E85FE30E943C
:101E6000250488232CF481E090E09E838D833FC07D
:101E70006F81788589859A8520E03FEF4FE757E4A9
:101E80000E94C50318164CF56B857C858D859E8553
:101E900020E030E040E251E40E941F02DC01CB016F
:101EA000BC01CD010E944900DC01CB019E838D83E2
:101EB0000FC080E991E09C838B838B819C8101978B
:101EC000F1F79C838B838D819E8101979E838D8307
:101ED0008D819E81009769F714C06F81788589850F
:101EE0009A850E944900DC01CB019E838D838D8100
:101EF0009E819A83898389819A810197F1F79A83D8
:101F0000898383E0698940E00E945707188A23C0CB
:101F10008889982F9C5F83E0692F0E945F088F87D4
:101F20008F858823A9F48989282F30E08889482F54
:101F300050E0220F331F220F331FCE010196820F74
:101F4000931F840F951FFC01729680818A8B06C0B7
:101F500088898F5F888B88898430D0F289898F5FE8
:101F6000898B8989843008F446CF8A89A7960FB671
:101F7000F894DEBF0FBECDBFCF91DF9108950F93D0
:101F80001F93DF93CF93CDB7DEB7C65FD1400FB6B7
:101F9000F894DEBF0FBECDBFFE01EA51FE4F1082A6
:101FA000FE01EB51FE4F8FEF8083FE01EC51FE4F9F
:101FB0008FEF8083FE01ED51FE4F1082FE01EE5146
:101FC000FE4F1082FE01EF51FE4F8FEF808382E0C3
:101FD00065E00E94C10D82E066E00E94C10D82E0D2
:101FE00067E00E94C10D0E948D0A0E948A0E0E9425
:101FF000140E80E690E00E946D0D82E061E00E9488
:10200000A00D81E790E00E946D0DFE01E752FE4FAA
:1020100080E090E0AAE7B4E480839183A283B38355
:102020008E010B521E4FFE01E752FE4F60817181FF
:102030008281938120E030E04AE755E40E941F024C
:10204000DC01CB01F80180839183A283B383FE017D
:10205000EB52FE4F608171818281938120E030E0FC
:1020600040E85FE30E942504882344F4FE01ED521A
:10207000FE4F81E090E09183808364C0FE01EB52CB
:10208000FE4F608171818281938120E03FEF4FE7B5
:1020900057E40E94C50318160CF043C0FE01E75236
:1020A000FE4F608171818281938120E030E040E2C7
:1020B00051E40E941F02DC01CB018E010D521E4F24
:1020C000BC01CD010E944900DC01CB01F8019183E4
:1020D00080831FC0FE01EF52FE4F80E991E09183A3
:1020E0008083FE01EF52FE4F808191810197F1F7CD
:1020F000FE01EF52FE4F91838083DE01AD52BE4F51
:10210000FE01ED52FE4F80819181019711969C93C3
:102110008E93FE01ED52FE4F808191810097D1F6A2
:1021200027C08E010D521E4FFE01EB52FE4F608103
:102130007181828193810E944900DC01CB01F80109
:1021400091838083DE01A153BE4FFE01ED52FE4F0D
:10215000808191818D939C93FE01E153FE4F80819C
:1021600091810197F1F7FE01E153FE4F9183808346
:102170000E94960D80E091E00E946909813039F457
:1021800081E091E00E946909813009F4E4C58DE79E
:1021900090E00E946D0D82E061E00E94A00D87E852
:1021A00090E00E946D0DFE01E553FE4F80E090E04F
:1021B000AAE7B4E480839183A283B3838E01095399
:1021C0001E4FFE01E553FE4F608171818281938134
:1021D00020E030E04AE755E40E941F02DC01CB0119
:1021E000F80180839183A283B383FE01E953FE4FFC
:1021F000608171818281938120E030E040E85FE37B
:102200000E942504882344F4FE01EB53FE4F81E035
:1022100090E09183808364C0FE01E953FE4F6081AA
:1022200071818281938120E03FEF4FE757E40E9464
:10223000C50318160CF043C0FE01E553FE4F608144
:1022400071818281938120E030E040E251E40E947C
:102250001F02DC01CB018E010B531E4FBC01CD01CF
:102260000E944900DC01CB01F801918380831FC0EB
:10227000FE01ED53FE4F80E991E091838083FE01E2
:10228000ED53FE4F808191810197F1F7FE01ED53EF
:10229000FE4F91838083DE01AB53BE4FFE01EB53B3
:1022A000FE4F80819181019711969C938E93FE0140
:1022B000EB53FE4F808191810097D1F627C08E01AC
:1022C0000B531E4FFE01E953FE4F608171818281E5
:1022D00093810E944900DC01CB01F8019183808346
:1022E000DE01AF53BE4FFE01EB53FE4F8081918163
:1022F0008D939C93FE01EF53FE4F80819181019756
:10230000F1F7FE01EF53FE4F918380830E94960DFB
:1023100083E990E00E946D0D82E061E00E94A00DD3
:1023200083EA90E00E946D0DFE01E052FE4F1082A4
:10233000FE01E951FE4F8FEF8083FE01E951FE4F10
:102340008FEF8183FE01E951FE4F8FEF8283FE0103
:10235000E951FE4F8FEF8383A5C1FE01EF51FE4F80
:102360008FEF808306C00E94CD0EFE01EF51FE4F1D
:102370008083FE01EF51FE4F80818F3FA1F3FE016C
:10238000E052FE4F8081282F30E0CE0189519E4FD0
:10239000DC01A20FB31FFE01EF51FE4F80818C9331
:1023A000FE01EF51FE4F80810E94620CFE01E3545A
:1023B000FE4F80E090E0A8E4B3E480839183A283A1
:1023C000B3838E0107541E4FFE01E354FE4F60811C
:1023D00071818281938120E030E04AE755E40E94D8
:1023E0001F02DC01CB01F80180839183A283B383B8
:1023F000FE01E754FE4F608171818281938120E06C
:1024000030E040E85FE30E942504882344F4FE01A5
:10241000E954FE4F81E090E09183808364C0FE0127
:10242000E754FE4F608171818281938120E03FEF0C
:102430004FE757E40E94C50318160CF043C0FE0195
:10244000E354FE4F608171818281938120E030E00E
:1024500040E251E40E941F02DC01CB018E010954CD
:102460001E4FBC01CD010E944900DC01CB01F801E7
:10247000918380831FC0FE01EB54FE4F80E991E001
:1024800091838083FE01EB54FE4F808191810197FF
:10249000F1F7FE01EB54FE4F91838083DE01A954D6
:1024A000BE4FFE01E954FE4F808191810197119644
:1024B0009C938E93FE01E954FE4F80819181009799
:1024C000D1F627C08E0109541E4FFE01E754FE4F7E
:1024D00060817181828193810E944900DC01CB017E
:1024E000F80191838083DE01AD54BE4FFE01E954B3
:1024F000FE4F808191818D939C93FE01ED54FE4FA0
:10250000808191810197F1F7FE01ED54FE4F918397
:102510008083FE01E052FE4F8081982F945F82E01D
:10252000692F0E94A00D8AE20E94620CFE01E15513
:10253000FE4F80E090E0A8ECB2E480839183A28318
:10254000B3838E0105551E4FFE01E155FE4F60819C
:1025500071818281938120E030E04AE755E40E9456
:102560001F02DC01CB01F80180839183A283B38336
:10257000FE01E555FE4F608171818281938120E0EB
:1025800030E040E85FE30E942504882344F4FE0124
:10259000E755FE4F81E090E09183808364C0FE01A7
:1025A000E555FE4F608171818281938120E03FEF8C
:1025B0004FE757E40E94C50318160CF043C0FE0114
:1025C000E155FE4F608171818281938120E030E08E
:1025D00040E251E40E941F02DC01CB018E0107554D
:1025E0001E4FBC01CD010E944900DC01CB01F80166
:1025F000918380831FC0FE01E955FE4F80E991E081
:1026000091838083FE01E955FE4F8081918101977E
:10261000F1F7FE01E955FE4F91838083DE01A75556
:10262000BE4FFE01E755FE4F8081918101971196C3
:102630009C938E93FE01E755FE4F80819181009718
:10264000D1F627C08E0107551E4FFE01E555FE4FFE
:1026500060817181828193810E944900DC01CB01FC
:10266000F80191838083DE01AB55BE4FFE01E75533
:10267000FE4F808191818D939C93FE01EB55FE4F1F
:10268000808191810197F1F7FE01EB55FE4F918317
:102690008083DE01A052BE4FFE01E052FE4F8081DA
:1026A0008F5F8C93FE01E052FE4F8081843008F4EE
:1026B00054CE9E0129513E4F82E091E0B90144E0A1
:1026C00050E00E94210A80E091E061E00E94E1096F
:1026D0000E94960D8FEA90E00E946D0DFE01EF556D
:1026E000FE4F80E090E0AAEFB3E480839183A28361
:1026F000B3838E0103561E4FFE01EF55FE4F6081DE
:1027000071818281938120E030E04AE755E40E94A4
:102710001F02DC01CB01F80180839183A283B38384
:10272000FE01E356FE4F608171818281938120E03A
:1027300030E040E85FE30E942504882344F4FE0172
:10274000E556FE4F81E090E09183808364C0FE01F6
:10275000E356FE4F608171818281938120E03FEFDB
:102760004FE757E40E94C50318160CF043C0FE0162
:10277000EF55FE4F608171818281938120E030E0CE
:1027800040E251E40E941F02DC01CB018E0105569C
:102790001E4FBC01CD010E944900DC01CB01F801B4
:1027A000918380831FC0FE01E756FE4F80E991E0D0
:1027B00091838083FE01E756FE4F808191810197CE
:1027C000F1F7FE01E756FE4F91838083DE01A556A7
:1027D000BE4FFE01E556FE4F808191810197119613
:1027E0009C938E93FE01E556FE4F80819181009768
:1027F000D1F627C08E0105561E4FFE01E356FE4F4F
:1028000060817181828193810E944900DC01CB014A
:10281000F80191838083DE01A956BE4FFE01E55683
:10282000FE4F808191818D939C93FE01E956FE4F6E
:10283000808191810197F1F7FE01E956FE4F918366
:1028400080830E94960DFE01E052FE4F10828AEBBB
:1028500090E00E946D0D82E061E00E94A00D89EC85
:1028600090E00E946D0DA5C1FE01EF51FE4F8FEF6C
:10287000808306C00E94CD0EFE01EF51FE4F808383
:10288000FE01EF51FE4F80818F3FA1F3FE01E05228
:10289000FE4F8081282F30E0CE0189519E4FDC0110
:1028A000A20FB31FFE01EF51FE4F80818C93FE01FA
:1028B000EF51FE4F80810E94620CFE01ED56FE4FEB
:1028C00080E090E0A8E4B3E480839183A283B383A3
:1028D0008E0101571E4FFE01ED56FE4F6081718142
:1028E0008281938120E030E04AE755E40E941F0294
:1028F000DC01CB01F80180839183A283B383FE01C5
:10290000E157FE4F608171818281938120E030E048
:1029100040E85FE30E942504882344F4FE01E35766
:10292000FE4F81E090E09183808364C0FE01E15717
:10293000FE4F608171818281938120E03FEF4FE7FC
:1029400057E40E94C50318160CF043C0FE01ED5673
:10295000FE4F608171818281938120E030E040E20E
:1029600051E40E941F02DC01CB018E0103571E4F70
:10297000BC01CD010E944900DC01CB01F80191832B
:1029800080831FC0FE01E557FE4F80E991E09183EF
:102990008083FE01E557FE4F808191810197F1F719
:1029A000FE01E557FE4F91838083DE01A357BE4FA2
:1029B000FE01E357FE4F80819181019711969C9310
:1029C0008E93FE01E357FE4F808191810097D1F6EF
:1029D00027C08E0103571E4FFE01E157FE4F608155
:1029E0007181828193810E944900DC01CB01F80151
:1029F00091838083DE01A757BE4FFE01E357FE4F50
:102A0000808191818D939C93FE01E757FE4F8081D9
:102A100091810197F1F7FE01E757FE4F9183808383
:102A2000FE01E052FE4F8081982F945F82E0692F73
:102A30000E94A00D8AE20E94620CFE01EB57FE4F3D
:102A400080E090E0A8ECB2E480839183A283B3831A
:102A50008E010F571E4FFE01EB57FE4F60817181B3
:102A60008281938120E030E04AE755E40E941F0212
:102A7000DC01CB01F80180839183A283B383FE0143
:102A8000EF57FE4F608171818281938120E030E0B9
:102A900040E85FE30E942504882344F4FE01E158E6
:102AA000FE4F81E090E09183808364C0FE01EF5788
:102AB000FE4F608171818281938120E03FEF4FE77B
:102AC00057E40E94C50318160CF043C0FE01EB57F3
:102AD000FE4F608171818281938120E030E040E28D
:102AE00051E40E941F02DC01CB018E0101581E4FF0
:102AF000BC01CD010E944900DC01CB01F8019183AA
:102B000080831FC0FE01E358FE4F80E991E091836E
:102B10008083FE01E358FE4F808191810197F1F798
:102B2000FE01E358FE4F91838083DE01A158BE4F22
:102B3000FE01E158FE4F80819181019711969C938F
:102B40008E93FE01E158FE4F808191810097D1F66E
:102B500027C08E0101581E4FFE01EF57FE4F6081C6
:102B60007181828193810E944900DC01CB01F801CF
:102B700091838083DE01A558BE4FFE01E158FE4FD0
:102B8000808191818D939C93FE01E558FE4F808159
:102B900091810197F1F7FE01E558FE4F9183808303
:102BA000DE01A052BE4FFE01E052FE4F80818F5FDA
:102BB0008C93FE01E052FE4F8081843008F454CEA5
:102BC0009E0129513E4F86E091E0B90144E050E07A
:102BD0000E94210A81E091E061E00E94E1090E94E7
:102BE000960D8FEA90E00E946D0DFE01E958FE4FB0
:102BF00080E090E0AAEFB3E480839183A283B38363
:102C00008E010D581E4FFE01E958FE4F6081718103
:102C10008281938120E030E04AE755E40E941F0260
:102C2000DC01CB01F80180839183A283B383FE0191
:102C3000ED58FE4F608171818281938120E030E008
:102C400040E85FE30E942504882344F4FE01EF5826
:102C5000FE4F81E090E09183808364C0FE01ED58D7
:102C6000FE4F608171818281938120E03FEF4FE7C9
:102C700057E40E94C50318160CF043C0FE01E95842
:102C8000FE4F608171818281938120E030E040E2DB
:102C900051E40E941F02DC01CB018E010F581E4F30
:102CA000BC01CD010E944900DC01CB01F8019183F8
:102CB00080831FC0FE01E159FE4F80E991E09183BE
:102CC0008083FE01E159FE4F808191810197F1F7E8
:102CD000FE01E159FE4F91838083DE01AF58BE4F64
:102CE000FE01EF58FE4F80819181019711969C93D0
:102CF0008E93FE01EF58FE4F808191810097D1F6AF
:102D000027C08E010F581E4FFE01ED58FE4F608107
:102D10007181828193810E944900DC01CB01F8011D
:102D200091838083DE01A359BE4FFE01EF58FE4F11
:102D3000808191818D939C93FE01E359FE4F8081A8
:102D400091810197F1F7FE01E359FE4F9183808352
:102D50000E94960D04C0FE01EE51FE4F1082FE014E
:102D6000EF51FE4F8FEF8083FE01E152FE4F108244
:102D700080918C02813011F00C9447220E944A30DD
:102D800010928B0210928A0210928C02FE01ED5179
:102D9000FE4F1082FE01EF51FE4F8FEF808382E0E5
:102DA00065E00E94E30D82E066E00E94E30D0E9470
:102DB000960D85ED90E00E946D0DFE01E759FE4FE6
:102DC00080E090E0AAE7B4E480839183A283B38398
:102DD0008E010B591E4FFE01E759FE4F6081718134
:102DE0008281938120E030E04AE755E40E941F028F
:102DF000DC01CB01F80180839183A283B383FE01C0
:102E0000EB59FE4F608171818281938120E030E037
:102E100040E85FE30E942504882344F4FE01ED5955
:102E2000FE4F81E090E09183808365C0FE01EB5905
:102E3000FE4F608171818281938120E03FEF4FE7F7
:102E400057E40E94C50318160CF044C0FE01E75970
:102E5000FE4F608171818281938120E030E040E209
:102E600051E40E941F02DC01CB018E010D591E4F5F
:102E7000BC01CD010E944900DC01CB01F801918326
:102E800080831FC0FE01EF59FE4F80E991E09183DE
:102E90008083FE01EF59FE4F808191810197F1F708
:102EA000FE01EF59FE4F91838083DE01AD59BE4F85
:102EB000FE01ED59FE4F80819181019711969C93FF
:102EC0008E93FE01ED59FE4F808191810097D1F6DE
:102ED0000C9447228E010D591E4FFE01EB59FE4FF7
:102EE00060817181828193810E944900DC01CB0164
:102EF000F80191838083DE01A15ABE4FFE01ED5996
:102F0000FE4F8081918111969C938E93FE01E15A30
:102F1000FE4F808191810197F1F7FE01E15AFE4F4A
:102F2000918380830C944722FE01EE51FE4F8081F5
:102F3000813009F0D5C00E94960D85EE90E00E9488
:102F40006D0D82E061E00E94A00D83EF90E00E9491
:102F50006D0D82E067E00E94D20DFE01E55AFE4F42
:102F600080E090E4ACE9B5E480839183A283B383ED
:102F70008E01095A1E4FFE01E55AFE4F6081718194
:102F80008281938120E030E04AE755E40E941F02ED
:102F9000DC01CB01F80180839183A283B383FE011E
:102FA000E95AFE4F608171818281938120E030E097
:102FB00040E85FE30E942504882344F4FE01EB5AB5
:102FC000FE4F81E090E09183808364C0FE01E95A66
:102FD000FE4F608171818281938120E03FEF4FE756
:102FE00057E40E94C50318160CF043C0FE01E55AD1
:102FF000FE4F608171818281938120E030E040E268
:1030000051E40E941F02DC01CB018E010B5A1E4FBE
:10301000BC01CD010E944900DC01CB01F801918384
:1030200080831FC0FE01ED5AFE4F80E991E091833D
:103030008083FE01ED5AFE4F808191810197F1F767
:10304000FE01ED5AFE4F91838083DE01AB5ABE4FE5
:10305000FE01EB5AFE4F80819181019711969C935E
:103060008E93FE01EB5AFE4F808191810097D1F63D
:1030700027C08E010B5A1E4FFE01E95AFE4F608198
:103080007181828193810E944900DC01CB01F801AA
:1030900091838083DE01AF5ABE4FFE01EB5AFE4F93
:1030A000808191818D939C93FE01EF5AFE4F808128
:1030B00091810197F1F7FE01EF5AFE4F91838083D2
:1030C000FE01E152FE4F1082FE01EE51FE4F1082D2
:1030D00082E067E00E94E30DFE01EE51FE4F108298
:1030E0000E94960D82E091E00E946D0D82E061E009
:1030F0000E94A00D81E191E00E946D0D06C00E942A
:10310000CD0EFE01EF51FE4F8083FE01EF51FE4FC9
:1031100080818F3FA1F3FE01EF51FE4F808180330C
:1031200009F4C9C0FE01EF51FE4F8081813309F4DB
:10313000C2C00E94960D81E291E00E946D0DFE01D9
:10314000EF51FE4F8FEF8083FE01E35BFE4F80E087
:1031500090E0AAE7B4E480839183A283B3838E01D5
:10316000075B1E4FFE01E35BFE4F60817181828130
:10317000938120E030E04AE755E40E941F02DC0121
:10318000CB01F80180839183A283B383FE01E75BC7
:10319000FE4F608171818281938120E030E040E8C0
:1031A0005FE30E942504882344F4FE01E95BFE4F9F
:1031B00081E090E09183808365C0FE01E75BFE4F74
:1031C000608171818281938120E03FEF4FE757E476
:1031D0000E94C50318160CF044C0FE01E35BFE4FCD
:1031E000608171818281938120E030E040E251E48E
:1031F0000E941F02DC01CB018E01095B1E4FBC0146
:10320000CD010E944900DC01CB01F801918380834C
:103210001FC0FE01EB5BFE4F80E991E0918380834C
:10322000FE01EB5BFE4F808191810197F1F7FE017A
:10323000EB5BFE4F91838083DE01A95BBE4FFE01F5
:10324000E95BFE4F80819181019711969C938E934B
:10325000FE01E95BFE4F808191810097D1F60C94CD
:1032600047228E01095B1E4FFE01E75BFE4F608126
:103270007181828193810E944900DC01CB01F801B8
:1032800091838083DE01AD5BBE4FFE01E95BFE4FA3
:103290008081918111969C938E93FE01ED5BFE4F90
:1032A000808191810197F1F7FE01ED5BFE4F9183E3
:1032B00080830C944722FE01E352FE4F1082FE01F0
:1032C000E551FE4F8FEF8083FE01E551FE4F8FEFFA
:1032D0008183FE01E551FE4F8FEF8283FE01E551B0
:1032E000FE4F8FEF8383FE01E151FE4F8FEF80830E
:1032F000FE01E151FE4F8FEF8183FE01E151FE4F50
:103300008FEF8283FE01E151FE4F8FEF8383FE0139
:10331000EF51FE4F8081282F30E0CB50DE4F3983B4
:103320002883C55FD140CB50DE4F88819981C55F2E
:10333000D1408033910509F454C4CB50DE4FE8816D
:10334000F981C55FD140E133F10511F40C944022BD
:103350000C944722FE01EF51FE4F8FEF80830E94B5
:10336000960D8EE291E00E946D0D82E061E00E9478
:10337000A00D89E391E00E946D0DFE01E15CFE4F1E
:1033800080E090E0A8E4B3E480839183A283B383D8
:103390008E01055C1E4FFE01E15CFE4F6081718174
:1033A0008281938120E030E04AE755E40E941F02C9
:1033B000DC01CB01F80180839183A283B383FE01FA
:1033C000E55CFE4F608171818281938120E030E075
:1033D00040E85FE30E942504882344F4FE01E75C93
:1033E000FE4F81E090E09183808364C0FE01E55C44
:1033F000FE4F608171818281938120E03FEF4FE732
:1034000057E40E94C50318160CF043C0FE01E15CAE
:10341000FE4F608171818281938120E030E040E243
:1034200051E40E941F02DC01CB018E01075C1E4F9C
:10343000BC01CD010E944900DC01CB01F801918360
:1034400080831FC0FE01E95CFE4F80E991E091831B
:103450008083FE01E95CFE4F808191810197F1F745
:10346000FE01E95CFE4F91838083DE01A75CBE4FC5
:10347000FE01E75CFE4F80819181019711969C933C
:103480008E93FE01E75CFE4F808191810097D1F61B
:1034900028C08E01075C1E4FFE01E55CFE4F608177
:1034A0007181828193810E944900DC01CB01F80186
:1034B00091838083DE01AB5CBE4FFE01E75CFE4F73
:1034C0008081918111969C938E93FE01EB5CFE4F5F
:1034D000808191810197F1F7FE01EB5CFE4F9183B2
:1034E0008083FE01E352FE4F1082A4C10E94CD0EE4
:1034F000FE01EF51FE4F8083FE01EF51FE4F8081B0
:103500008F3FA1F3FE01E352FE4F8081282F30E070
:10351000CE0185519E4FDC01A20FB31FFE01EF517A
:10352000FE4F80818C93FE01EF51FE4F80810E94FF
:10353000620CFE01EF5CFE4F80E090E0A8E4B3E493
:1035400080839183A283B3838E01035D1E4FFE01AE
:10355000EF5CFE4F608171818281938120E030E0D9
:103560004AE755E40E941F02DC01CB01F801808389
:103570009183A283B383FE01E35DFE4F608171817D
:103580008281938120E030E040E85FE30E942504DF
:10359000882344F4FE01E55DFE4F81E090E09183D5
:1035A000808364C0FE01E35DFE4F60817181828192
:1035B000938120E03FEF4FE757E40E94C5031816C0
:1035C0000CF043C0FE01EF5CFE4F6081718182818F
:1035D000938120E030E040E251E40E941F02DC01D0
:1035E000CB018E01055D1E4FBC01CD010E9449003B
:1035F000DC01CB01F801918380831FC0FE01E75DF0
:10360000FE4F80E991E091838083FE01E75DFE4FEC
:10361000808191810197F1F7FE01E75DFE4F918373
:103620008083DE01A55DBE4FFE01E55DFE4F80811A
:103630009181019711969C938E93FE01E55DFE4F5B
:10364000808191810097D1F627C08E01055D1E4FC4
:10365000FE01E35DFE4F60817181828193810E9452
:103660004900DC01CB01F80191838083DE01A95D73
:10367000BE4FFE01E55DFE4F808191818D939C934D
:10368000FE01E95DFE4F808191810197F1F7FE0116
:10369000E95DFE4F91838083FE01E352FE4F8081FE
:1036A000982F945F82E0692F0E94A00D8AE20E9409
:1036B000620CFE01ED5DFE4F80E090E0A8ECB2E40C
:1036C00080839183A283B3838E01015E1E4FFE012E
:1036D000ED5DFE4F608171818281938120E030E059
:1036E0004AE755E40E941F02DC01CB01F801808308
:1036F0009183A283B383FE01E15EFE4F60817181FD
:103700008281938120E030E040E85FE30E9425045D
:10371000882344F4FE01E35EFE4F81E090E0918354
:10372000808364C0FE01E15EFE4F60817181828111
:10373000938120E03FEF4FE757E40E94C50318163E
:103740000CF043C0FE01ED5DFE4F6081718182810E
:10375000938120E030E040E251E40E941F02DC014E
:10376000CB018E01035E1E4FBC01CD010E944900BA
:10377000DC01CB01F801918380831FC0FE01E55E6F
:10378000FE4F80E991E091838083FE01E55EFE4F6C
:10379000808191810197F1F7FE01E55EFE4F9183F3
:1037A0008083DE01A35EBE4FFE01E35EFE4F80819B
:1037B0009181019711969C938E93FE01E35EFE4FDB
:1037C000808191810097D1F627C08E01035E1E4F44
:1037D000FE01E15EFE4F60817181828193810E94D2
:1037E0004900DC01CB01F80191838083DE01A75EF3
:1037F000BE4FFE01E35EFE4F808191818D939C93CD
:10380000FE01E75EFE4F808191810197F1F7FE0195
:10381000E75EFE4F91838083DE01A352BE4FFE011F
:10382000E352FE4F80818F5F8C93FE01EF51FE4F7C
:103830008FEF8083FE01E352FE4F8081843008F4D5
:103840005BCE9E0121513E4F82E091E0B90144E000
:1038500050E00E949109CE0185519E4F9E01215159
:103860003E4FB90144E00E94862D813009F0D3C05B
:10387000FE01ED51FE4F81E08083FE01E152FE4FDB
:1038800010820E94960D85E491E00E946D0D82E009
:1038900061E00E94A00D8EE291E00E946D0DFE019C
:1038A000EB5EFE4F80E090E0AAEFB3E4808391836B
:1038B000A283B3838E010F5E1E4FFE01EB5EFE4FAF
:1038C000608171818281938120E030E04AE755E494
:1038D0000E941F02DC01CB01F80180839183A28347
:1038E000B383FE01EF5EFE4F60817181828193811F
:1038F00020E030E040E85FE30E942504882344F4A0
:10390000FE01E15FFE4F81E090E09183808364C01F
:10391000FE01EF5EFE4F608171818281938120E024
:103920003FEF4FE757E40E94C50318160CF043C061
:10393000FE01EB5EFE4F608171818281938120E008
:1039400030E040E251E40E941F02DC01CB018E0115
:10395000015F1E4FBC01CD010E944900DC01CB017B
:10396000F801918380831FC0FE01E35FFE4F80E971
:1039700091E091838083FE01E35FFE4F808191811E
:103980000197F1F7FE01E35FFE4F91838083DE0133
:10399000A15FBE4FFE01E15FFE4F808191810197E3
:1039A00011969C938E93FE01E15FFE4F8081918181
:1039B0000097D1F627C08E01015F1E4FFE01EF5E1A
:1039C000FE4F60817181828193810E944900DC01F8
:1039D000CB01F80191838083DE01A55FBE4FFE011C
:1039E000E15FFE4F808191818D939C93FE01E55FA5
:1039F000FE4F808191810197F1F7FE01E55FFE4F57
:103A00009183808382E065E00E94D20D0E94143091
:103A10000E94960DE6C0DE01A152BE4FFE01E152AA
:103A2000FE4F80818F5F8C93FE01ED51FE4F10821F
:103A30000E94960D80E591E00E946D0D82E061E0AC
:103A40000E94A00D8BE591E00E946D0DFE01E152F8
:103A5000FE4F93E38081F92FF81B8F2F0E94620C99
:103A6000FE01E95FFE4F80E090E0AAEFB3E48083BF
:103A70009183A283B3838E010D5F1E4FFE01E95F28
:103A8000FE4F608171818281938120E030E04AE7BE
:103A900055E40E941F02DC01CB01F8018083918371
:103AA000A283B383FE01ED5FFE4F6081718182814D
:103AB000938120E030E040E85FE30E942504882302
:103AC00044F4FE01EF5FFE4F81E090E0918380833C
:103AD00064C0FE01ED5FFE4F608171818281938140
:103AE00020E03FEF4FE757E40E94C50318160CF0A3
:103AF00043C0FE01E95FFE4F608171818281938145
:103B000020E030E040E251E40E941F02DC01CB01E2
:103B10008E010F5F1E4FBC01CD010E944900DC01E8
:103B2000CB01F801918380831FC0FE01E150FF4F5C
:103B300080E991E091838083FE01E150FF4F808115
:103B400091810197F1F7FE01E150FF4F918380834E
:103B5000DE01AF5FBE4FFE01EF5FFE4F80819181BE
:103B6000019711969C938E93FE01EF5FFE4F80812B
:103B700091810097D1F627C08E010F5F1E4FFE0185
:103B8000ED5FFE4F60817181828193810E944900C7
:103B9000DC01CB01F80191838083DE01A350BF4F8C
:103BA000FE01EF5FFE4F808191818D939C93FE011A
:103BB000E350FF4F808191810197F1F7FE01E350BF
:103BC000FF4F918380830E94960DFE01E152FE4FCC
:103BD0008081833030F0FE01EE51FE4F81E0808322
:103BE00056C4FE01ED51FE4F8081813009F0B2CB09
:103BF0004EC4FE01EF51FE4F8FEF80830E94960D61
:103C000087E691E00E946D0D82E061E00E94A00DC8
:103C100089EC90E00E946D0DFE01E750FF4F80E0BF
:103C200090E0A8E4B3E480839183A283B3838E0100
:103C30000B501F4FFE01E750FF4F60817181828161
:103C4000938120E030E04AE755E40E941F02DC0146
:103C5000CB01F80180839183A283B383FE01EB50F3
:103C6000FF4F608171818281938120E030E040E8E4
:103C70005FE30E942504882344F4FE01ED50FF4FCA
:103C800081E090E09183808364C0FE01EB50FF4FA0
:103C9000608171818281938120E03FEF4FE757E49B
:103CA0000E94C50318160CF043C0FE01E750FF4FF9
:103CB000608171818281938120E030E040E251E4B3
:103CC0000E941F02DC01CB018E010D501F4FBC0171
:103CD000CD010E944900DC01CB01F8019183808372
:103CE0001FC0FE01EF50FF4F80E991E09183808378
:103CF000FE01EF50FF4F808191810197F1F7FE01A6
:103D0000EF50FF4F91838083DE01AD50BF4FFE0126
:103D1000ED50FF4F80819181019711969C938E9376
:103D2000FE01ED50FF4F808191810097D1F628C0B0
:103D30008E010D501F4FFE01EB50FF4F60817181CE
:103D4000828193810E944900DC01CB01F8019183BB
:103D50008083DE01A151BF4FFE01ED50FF4F8081F6
:103D6000918111969C938E93FE01E151FF4F8081CA
:103D700091810197F1F7FE01E151FF4F918380831B
:103D8000FE01E352FE4F1082A4C10E94CD0EFE013F
:103D9000EF51FE4F8083FE01EF51FE4F80818F3F38
:103DA000A1F3FE01E352FE4F8081282F30E0CE01C7
:103DB00085519E4FDC01A20FB31FFE01EF51FE4F54
:103DC00080818C93FE01EF51FE4F80810E94620C36
:103DD000FE01E551FF4F80E090E0A8E4B3E480836A
:103DE0009183A283B3838E0109511F4FFE01E551D8
:103DF000FF4F608171818281938120E030E04AE74A
:103E000055E40E941F02DC01CB01F80180839183FD
:103E1000A283B383FE01E951FF4F608171818281EA
:103E2000938120E030E040E85FE30E94250488238E
:103E300044F4FE01EB51FF4F81E090E091838083D9
:103E400064C0FE01E951FF4F6081718182819381DD
:103E500020E03FEF4FE757E40E94C50318160CF02F
:103E600043C0FE01E551FF4F6081718182819381E2
:103E700020E030E040E251E40E941F02DC01CB016F
:103E80008E010B511F4FBC01CD010E944900DC0186
:103E9000CB01F801918380831FC0FE01ED51FF4FDC
:103EA00080E991E091838083FE01ED51FF4F808195
:103EB00091810197F1F7FE01ED51FF4F91838083CE
:103EC000DE01AB51BF4FFE01EB51FF4F808191816D
:103ED000019711969C938E93FE01EB51FF4F8081C9
:103EE00091810097D1F627C08E010B511F4FFE0123
:103EF000E951FF4F60817181828193810E94490065
:103F0000DC01CB01F80191838083DE01AF51BF4F0B
:103F1000FE01EB51FF4F808191818D939C93FE01B7
:103F2000EF51FF4F808191810197F1F7FE01EF5131
:103F3000FF4F91838083FE01E352FE4F8081982FD3
:103F4000945F82E0692F0E94A00D8AE20E94620CB9
:103F5000FE01E352FF4F80E090E0A8ECB2E48083E2
:103F60009183A283B3838E0107521F4FFE01E35258
:103F7000FF4F608171818281938120E030E04AE7C8
:103F800055E40E941F02DC01CB01F801808391837C
:103F9000A283B383FE01E752FF4F6081718182816A
:103FA000938120E030E040E85FE30E94250488230D
:103FB00044F4FE01E952FF4F81E090E09183808359
:103FC00064C0FE01E752FF4F60817181828193815D
:103FD00020E03FEF4FE757E40E94C50318160CF0AE
:103FE00043C0FE01E352FF4F608171818281938162
:103FF00020E030E040E251E40E941F02DC01CB01EE
:104000008E0109521F4FBC01CD010E944900DC0105
:10401000CB01F801918380831FC0FE01EB52FF4F5B
:1040200080E991E091838083FE01EB52FF4F808114
:1040300091810197F1F7FE01EB52FF4F918380834D
:10404000DE01A952BF4FFE01E952FF4F80819181ED
:10405000019711969C938E93FE01E952FF4F808148
:1040600091810097D1F627C08E0109521F4FFE01A2
:10407000E752FF4F60817181828193810E944900E4
:10408000DC01CB01F80191838083DE01AD52BF4F8B
:10409000FE01E952FF4F808191818D939C93FE0137
:1040A000ED52FF4F808191810197F1F7FE01ED52B2
:1040B000FF4F91838083DE01A352BE4FFE01E35286
:1040C000FE4F80818F5F8C93FE01EF51FE4F8FEF8B
:1040D0008083FE01E352FE4F8081843008F45BCE82
:1040E0009E0121513E4F86E091E0B90144E050E04D
:1040F0000E949109CE0185519E4F9E0121513E4F54
:10410000B90144E00E94862D813009F0D3C0FE0140
:10411000ED51FE4F82E08083FE01E152FE4F10829E
:104120000E94960D85E491E00E946D0D82E061E0B1
:104130000E94A00D87E691E00E946D0DFE01E15303
:10414000FF4F80E090E0AAEFB3E480839183A283E5
:10415000B3838E0105531F4FFE01E153FF4F608172
:1041600071818281938120E030E04AE755E40E942A
:104170001F02DC01CB01F80180839183A283B3830A
:10418000FE01E553FF4F608171818281938120E0C0
:1041900030E040E85FE30E942504882344F4FE01F8
:1041A000E753FF4F81E090E09183808364C0FE017C
:1041B000E553FF4F608171818281938120E03FEF61
:1041C0004FE757E40E94C50318160CF043C0FE01E8
:1041D000E153FF4F608171818281938120E030E063
:1041E00040E251E40E941F02DC01CB018E01075323
:1041F0001F4FBC01CD010E944900DC01CB01F80139
:10420000918380831FC0FE01E953FF4F80E991E055
:1042100091838083FE01E953FF4F80819181019753
:10422000F1F7FE01E953FF4F91838083DE01A7532D
:10423000BF4FFE01E753FF4F808191810197119697
:104240009C938E93FE01E753FF4F808191810097ED
:10425000D1F627C08E0107531F4FFE01E553FF4FD4
:1042600060817181828193810E944900DC01CB01D0
:10427000F80191838083DE01AB53BF4FFE01E7530A
:10428000FF4F808191818D939C93FE01EB53FF4FF3
:10429000808191810197F1F7FE01EB53FF4F9183EC
:1042A000808382E066E00E94D20D0E9414300E945A
:1042B000960DE6C0DE01A152BE4FFE01E152FE4F57
:1042C00080818F5F8C93FE01ED51FE4F10820E9422
:1042D000960D80E591E00E946D0D82E061E00E9404
:1042E000A00D8BE591E00E946D0DFE01E152FE4FA5
:1042F00093E38081F92FF81B8F2F0E94620CFE013F
:10430000EF53FF4F80E090E0AAEFB3E48083918306
:10431000A283B3838E0103541F4FFE01EF53FF4F5F
:10432000608171818281938120E030E04AE755E429
:104330000E941F02DC01CB01F80180839183A283DC
:10434000B383FE01E354FF4F6081718182819381C9
:1043500020E030E040E85FE30E942504882344F435
:10436000FE01E554FF4F81E090E09183808364C0BB
:10437000FE01E354FF4F608171818281938120E0CF
:104380003FEF4FE757E40E94C50318160CF043C0F7
:10439000FE01EF53FF4F608171818281938120E0A4
:1043A00030E040E251E40E941F02DC01CB018E01AB
:1043B00005541F4FBC01CD010E944900DC01CB0117
:1043C000F801918380831FC0FE01E754FF4F80E90D
:1043D00091E091838083FE01E754FF4F80819181BA
:1043E0000197F1F7FE01E754FF4F91838083DE01CF
:1043F000A554BF4FFE01E554FF4F80819181019785
:1044000011969C938E93FE01E554FF4F808191811C
:104410000097D1F627C08E0105541F4FFE01E354CB
:10442000FF4F60817181828193810E944900DC018C
:10443000CB01F80191838083DE01A954BF4FFE01B7
:10444000E554FF4F808191818D939C93FE01E95447
:10445000FF4F808191810197F1F7FE01E954FF4FF1
:10446000918380830E94960DFE01E152FE4F808170
:10447000833030F0FE01EE51FE4F81E0808307C0B3
:10448000FE01ED51FE4F8081823009F0B2CBFE017A
:10449000ED51FE4F8081882311F40C949417FE0196
:1044A000E252FE4F81E080830C94612DFE01EF51BA
:1044B000FE4F8FEF8083FE01E252FE4F8081282F56
:1044C00030E0CD50DE4F39832883C35FD140CD50DB
:1044D000DE4F88819981C35FD1408530910509F411
:1044E0003BC6CD50DE4FE881F981C35FD140E63055
:1044F000F105ACF5CD50DE4F28813981C35FD14045
:104500002230310509F46CC2CD50DE4F888199818B
:10451000C35FD1408330910564F4CD50DE4FE88114
:10452000F981C35FD140E130F10509F457C00C9423
:10453000612DCD50DE4F28813981C35FD1402330BA
:10454000310509F4EFC5CD50DE4F88819981C35FF5
:10455000D1408430910509F4F2C50C94612DCD5001
:10456000DE4FE881F981C35FD140E830F10509F4FD
:104570000EC4CD50DE4F28813981C35FD140293030
:104580003105B4F4CD50DE4F88819981C35FD140AD
:104590008630910509F4EDC5CD50DE4FE881F981F3
:1045A000C35FD140E730F10509F4FCC50C94612DDF
:1045B000CD50DE4F28813981C35FD140293031058C
:1045C00009F4FDC5CD50DE4F88819981C35FD1408C
:1045D0008A30910509F400C60C94612D0E94960D55
:1045E00082E791E00E946D0D82E061E00E94A00DE3
:1045F000FE01ED51FE4F8081813029F482E891E087
:104600000E946D0D0AC0FE01ED51FE4F8081823087
:1046100021F482E991E00E946D0DFE01ED51FE4F03
:1046200080810E94E52FFE01EF51FE4F8083FE0145
:10463000ED54FF4F80E090E0A8ECB2E480839183DA
:10464000A283B3838E0101551F4FFE01ED54FF4F2E
:10465000608171818281938120E030E04AE755E4F6
:104660000E941F02DC01CB01F80180839183A283A9
:10467000B383FE01E155FF4F608171818281938197
:1046800020E030E040E85FE30E942504882344F402
:10469000FE01E355FF4F81E090E09183808364C089
:1046A000FE01E155FF4F608171818281938120E09D
:1046B0003FEF4FE757E40E94C50318160CF043C0C4
:1046C000FE01ED54FF4F608171818281938120E072
:1046D00030E040E251E40E941F02DC01CB018E0178
:1046E00003551F4FBC01CD010E944900DC01CB01E5
:1046F000F801918380831FC0FE01E555FF4F80E9DB
:1047000091E091838083FE01E555FF4F8081918187
:104710000197F1F7FE01E555FF4F91838083DE019C
:10472000A355BF4FFE01E355FF4F80819181019753
:1047300011969C938E93FE01E355FF4F80819181EA
:104740000097D1F628C08E0103551F4FFE01E15599
:10475000FF4F60817181828193810E944900DC0159
:10476000CB01F80191838083DE01A755BF4FFE0185
:10477000E355FF4F8081918111969C938E93FE01AA
:10478000E755FF4F808191810197F1F7FE01E755D1
:10479000FF4F91838083FE01EF51FE4F8081813373
:1047A00031F4FE01E252FE4F83E0808304C1FE013A
:1047B000EF51FE4F8081823331F4FE01E252FE4F11
:1047C00084E08083F8C0FE01EF51FE4F8081833387
:1047D00031F4FE01E252FE4F85E08083ECC0FE0121
:1047E000EF51FE4F8081843361F4FE01ED51FE4FA5
:1047F0008081823031F4FE01E252FE4F86E08083F8
:10480000DAC0FE01EF51FE4F8081843361F4FE0176
:10481000ED51FE4F8081813031F4FE01E252FE4FB6
:1048200082E08083C8C0FE01EF51FE4F80818F3F40
:1048300009F4C1C0FE01EF51FE4F8081803309F4BD
:10484000BAC00E94960D83EA91E00E946D0DFE01B0
:10485000EB55FF4F80E090E0AAEFB3E480839183B3
:10486000A283B3838E010F551F4FFE01EB55FF4FFF
:10487000608171818281938120E030E04AE755E4D4
:104880000E941F02DC01CB01F80180839183A28387
:10489000B383FE01EF55FF4F608171818281938167
:1048A00020E030E040E85FE30E942504882344F4E0
:1048B000FE01E156FF4F81E090E09183808364C068
:1048C000FE01EF55FF4F608171818281938120E06D
:1048D0003FEF4FE757E40E94C50318160CF043C0A2
:1048E000FE01EB55FF4F608171818281938120E051
:1048F00030E040E251E40E941F02DC01CB018E0156
:1049000001561F4FBC01CD010E944900DC01CB01C3
:10491000F801918380831FC0FE01E356FF4F80E9B9
:1049200091E091838083FE01E356FF4F8081918166
:104930000197F1F7FE01E356FF4F91838083DE017B
:10494000A156BF4FFE01E156FF4F80819181019733
:1049500011969C938E93FE01E156FF4F80819181C9
:104960000097D1F628C08E0101561F4FFE01EF556A
:10497000FF4F60817181828193810E944900DC0137
:10498000CB01F80191838083DE01A556BF4FFE0164
:10499000E156FF4F8081918111969C938E93FE0189
:1049A000E556FF4F808191810197F1F7FE01E556B1
:1049B000FF4F91838083FE01EF51FE4F8081813351
:1049C00040F0FE01EF51FE4F8081853310F40C94CE
:1049D000612D80918C02882309F400CE0C94612D06
:1049E0000E94960D8FEA91E00E946D0D82E061E0D9
:1049F0000E94A00D82EC91E00E946D0DFE01ED5130
:104A0000FE4F80810E94E52FFE01EF51FE4F808313
:104A1000FE01E956FF4F80E090E0A8ECB2E480830D
:104A20009183A283B3838E010D561F4FFE01E95679
:104A3000FF4F608171818281938120E030E04AE7FD
:104A400055E40E941F02DC01CB01F80180839183B1
:104A5000A283B383FE01ED56FF4F60817181828195
:104A6000938120E030E040E85FE30E942504882342
:104A700044F4FE01EF56FF4F81E090E09183808384
:104A800064C0FE01ED56FF4F608171818281938188
:104A900020E03FEF4FE757E40E94C50318160CF0E3
:104AA00043C0FE01E956FF4F60817181828193818D
:104AB00020E030E040E251E40E941F02DC01CB0123
:104AC0008E010F561F4FBC01CD010E944900DC0131
:104AD000CB01F801918380831FC0FE01E157FF4F96
:104AE00080E991E091838083FE01E157FF4F80814F
:104AF00091810197F1F7FE01E157FF4F9183808388
:104B0000DE01AF56BF4FFE01EF56FF4F808191810E
:104B1000019711969C938E93FE01EF56FF4F808173
:104B200091810097D1F628C08E010F561F4FFE01CC
:104B3000ED56FF4F60817181828193810E9449000F
:104B4000DC01CB01F80191838083DE01A357BF4FC5
:104B5000FE01EF56FF4F8081918111969C938E93B9
:104B6000FE01E357FF4F808191810197F1F7FE012C
:104B7000E357FF4F91838083FE01EF51FE4F808109
:104B8000813331F4FE01E252FE4F86E08083ECC0B7
:104B9000FE01EF51FE4F8081823331F4FE01E2527B
:104BA000FE4F87E08083E0C0FE01EF51FE4F808121
:104BB000833331F4FE01E252FE4F88E08083D4C09B
:104BC000FE01EF51FE4F8081843331F4FE01E25249
:104BD000FE4F81E08083C8C0FE01EF51FE4F80810F
:104BE0008F3F09F4C1C0FE01EF51FE4F8081803339
:104BF00009F4BAC00E94960D83EA91E00E946D0DFF
:104C0000FE01E757FF4F80E090E0AAEFB3E4808316
:104C10009183A283B3838E010B571F4FFE01E75789
:104C2000FF4F608171818281938120E030E04AE70B
:104C300055E40E941F02DC01CB01F80180839183BF
:104C4000A283B383FE01EB57FF4F608171818281A4
:104C5000938120E030E040E85FE30E942504882350
:104C600044F4FE01ED57FF4F81E090E09183808393
:104C700064C0FE01EB57FF4F608171818281938197
:104C800020E03FEF4FE757E40E94C50318160CF0F1
:104C900043C0FE01E757FF4F60817181828193819C
:104CA00020E030E040E251E40E941F02DC01CB0131
:104CB0008E010D571F4FBC01CD010E944900DC0140
:104CC000CB01F801918380831FC0FE01EF57FF4F96
:104CD00080E991E091838083FE01EF57FF4F80814F
:104CE00091810197F1F7FE01EF57FF4F9183808388
:104CF000DE01AD57BF4FFE01ED57FF4F808191811F
:104D0000019711969C938E93FE01ED57FF4F808182
:104D100091810097D1F628C08E010D571F4FFE01DB
:104D2000EB57FF4F60817181828193810E9449001E
:104D3000DC01CB01F80191838083DE01A158BF4FD4
:104D4000FE01ED57FF4F8081918111969C938E93C8
:104D5000FE01E158FF4F808191810197F1F7FE013B
:104D6000E158FF4F91838083FE01EF51FE4F808118
:104D7000813338F0FE01EF51FE4F8081853308F416
:104D8000A0C680918C02882309F42ACE9AC60E947C
:104D9000960D83ED91E00E946D0D82E061E00E942E
:104DA000A00D86EE91E00E946D0DFE01ED51FE4FCB
:104DB00080810E94E52FFE01EF51FE4F8083FE01AE
:104DC000E558FF4F80E090E0A8ECB2E48083918347
:104DD000A283B3838E0109581F4FFE01E558FF4F90
:104DE000608171818281938120E030E04AE755E45F
:104DF0000E941F02DC01CB01F80180839183A28312
:104E0000B383FE01E958FF4F6081718182819381F4
:104E100020E030E040E85FE30E942504882344F46A
:104E2000FE01EB58FF4F81E090E09183808364C0E6
:104E3000FE01E958FF4F608171818281938120E0FA
:104E40003FEF4FE757E40E94C50318160CF043C02C
:104E5000FE01E558FF4F608171818281938120E0DE
:104E600030E040E251E40E941F02DC01CB018E01E0
:104E70000B581F4FBC01CD010E944900DC01CB0142
:104E8000F801918380831FC0FE01ED58FF4F80E938
:104E900091E091838083FE01ED58FF4F80819181E5
:104EA0000197F1F7FE01ED58FF4F91838083DE01FA
:104EB000AB58BF4FFE01EB58FF4F808191810197A6
:104EC00011969C938E93FE01EB58FF4F8081918148
:104ED0000097D1F628C08E010B581F4FFE01E958EC
:104EE000FF4F60817181828193810E944900DC01C2
:104EF000CB01F80191838083DE01AF58BF4FFE01E3
:104F0000EB58FF4F8081918111969C938E93FE0107
:104F1000EF58FF4F808191810197F1F7FE01EF5823
:104F2000FF4F91838083FE01EF51FE4F80818133DB
:104F300031F4FE01E252FE4F8AE08083E0C0FE01C0
:104F4000EF51FE4F8081823331F4FE01E252FE4F79
:104F500089E08083D4C0FE01EF51FE4F8081803311
:104F600031F4FE01E252FE4F82E08083C8C0FE01B0
:104F7000EF51FE4F80818F3F09F4C1C0FE01EF5118
:104F8000FE4F8081803309F4BAC00E94960D83EAF7
:104F900091E00E946D0DFE01E359FF4F80E090E02B
:104FA000AAEFB3E480839183A283B3838E01075970
:104FB0001F4FFE01E359FF4F608171818281938110
:104FC00020E030E04AE755E40E941F02DC01CB01FB
:104FD000F80180839183A283B383FE01E759FF4FD9
:104FE000608171818281938120E030E040E85FE35D
:104FF0000E942504882344F4FE01E959FF4F81E013
:1050000090E09183808364C0FE01E759FF4F608187
:1050100071818281938120E03FEF4FE757E40E9446
:10502000C50318160CF043C0FE01E359FF4F608121
:1050300071818281938120E030E040E251E40E945E
:105040001F02DC01CB018E0109591F4FBC01CD01AC
:105050000E944900DC01CB01F801918380831FC0CD
:10506000FE01EB59FF4F80E991E091838083FE01BF
:10507000EB59FF4F808191810197F1F7FE01EB59C8
:10508000FF4F91838083DE01A959BF4FFE01E9598B
:10509000FF4F80819181019711969C938E93FE0121
:1050A000E959FF4F808191810097D1F628C08E0188
:1050B00009591F4FFE01E759FF4F608171818281BD
:1050C00093810E944900DC01CB01F8019183808328
:1050D000DE01AD59BF4FFE01E959FF4F808191813B
:1050E00011969C938E93FE01ED59FF4F8081918123
:1050F0000197F1F7FE01ED59FF4F91838083FE0187
:10510000EF51FE4F8081803338F0FE01EF51FE4FAA
:105110008081833308F4D5C480918C02882309F4FC
:1051200036CECFC4FE01ED51FE4F83E060810E9478
:10513000C02DFE01E252FE4F81E08083C2C4FE0119
:10514000ED51FE4F84E060810E94C02DFE01E252CD
:10515000FE4F81E08083B5C4FE01ED51FE4F85E036
:1051600060810E94C02DFE01E252FE4F81E08083EB
:10517000A8C4FE01ED51FE4F86E060810E94C02D63
:10518000FE01ED51FE4F8081813031F4FE01E2528B
:10519000FE4F82E0808395C4FE01E252FE4F81E023
:1051A00080838FC4FE01ED51FE4F87E060810E9435
:1051B000C02DFE01E252FE4F81E0808382C4FE01D9
:1051C000ED51FE4F88E060810E94C02DFE01E25249
:1051D000FE4F88E0808375C4FE01EA51FE4F1082C5
:1051E00060C4FE01EF51FE4F8FEF80830E94960D49
:1051F00087EF91E00E946D0D8FED0E94620C83E4B9
:105200000E94620C81E06BE00E94A00DFE01E15A59
:10521000FF4F80E090E0A8E4B3E480839183A28311
:10522000B3838E01055A1F4FFE01E15AFF4F608183
:1052300071818281938120E030E04AE755E40E9449
:105240001F02DC01CB01F80180839183A283B38329
:10525000FE01E55AFF4F608171818281938120E0D8
:1052600030E040E85FE30E942504882344F4FE0117
:10527000E75AFF4F81E090E09183808364C0FE0194
:10528000E55AFF4F608171818281938120E03FEF79
:105290004FE757E40E94C50318160CF043C0FE0107
:1052A000E15AFF4F608171818281938120E030E07B
:1052B00040E251E40E941F02DC01CB018E01075A3B
:1052C0001F4FBC01CD010E944900DC01CB01F80158
:1052D000918380831FC0FE01E95AFF4F80E991E06E
:1052E00091838083FE01E95AFF4F8081918101976C
:1052F000F1F7FE01E95AFF4F91838083DE01A75A3F
:10530000BF4FFE01E75AFF4F8081918101971196AF
:105310009C938E93FE01E75AFF4F80819181009705
:10532000D1F627C08E01075A1F4FFE01E55AFF4FE5
:1053300060817181828193810E944900DC01CB01EF
:10534000F80191838083DE01AB5ABF4FFE01E75A1B
:10535000FF4F808191818D939C93FE01EB5AFF4F0B
:10536000808191810197F1F7FE01EB5AFF4F918304
:105370008083FE01ED51FE4F80810E94E52FFE01EA
:10538000EF51FE4F8083FE01EF5AFF4F80E090E027
:10539000AAE7B3E480839183A283B3838E01035B86
:1053A0001F4FFE01EF5AFF4F60817181828193810F
:1053B00020E030E04AE755E40E941F02DC01CB0107
:1053C000F80180839183A283B383FE01E35BFF4FE7
:1053D000608171818281938120E030E040E85FE369
:1053E0000E942504882344F4FE01E55BFF4F81E021
:1053F00090E09183808364C0FE01E35BFF4F608196
:1054000071818281938120E03FEF4FE757E40E9452
:10541000C50318160CF043C0FE01EF5AFF4F608120
:1054200071818281938120E030E040E251E40E946A
:105430001F02DC01CB018E01055B1F4FBC01CD01BA
:105440000E944900DC01CB01F801918380831FC0D9
:10545000FE01E75BFF4F80E991E091838083FE01CD
:10546000E75BFF4F808191810197F1F7FE01E75BD8
:10547000FF4F91838083DE01A55BBF4FFE01E55B9B
:10548000FF4F80819181019711969C938E93FE012D
:10549000E55BFF4F808191810097D1F628C08E0196
:1054A000055B1F4FFE01E35BFF4F608171818281CD
:1054B00093810E944900DC01CB01F8019183808334
:1054C000DE01A95BBF4FFE01E55BFF4F808191814B
:1054D00011969C938E93FE01E95BFF4F8081918131
:1054E0000197F1F7FE01E95BFF4F91838083809183
:1054F0008C02813009F4E0C2FE01EF51FE4F808141
:10550000803338F0FE01EF51FE4F80818A3308F47A
:105510008CC00E94960D83EA91E00E946D0DFE0101
:10552000ED5BFF4F80E090E0AAEFB3E480839183CE
:10553000A283B3838E01015C1F4FFE01ED5BFF4F21
:10554000608171818281938120E030E04AE755E4F7
:105550000E941F02DC01CB01F80180839183A283AA
:10556000B383FE01FF96608171818281938120E087
:1055700030E040E85FE30E94250488232CF481E0BA
:1055800090E09EAF8DAF46C0FE01FF9660817181B5
:105590008281938120E03FEF4FE757E40E94C503EB
:1055A000181664F5FE01ED5BFF4F60817181828109
:1055B000938120E030E040E251E40E941F02DC01D0
:1055C000CB01BC01CD010E944900DC01CB019EAFA3
:1055D0008DAF0FC080E991E09CAF8BAF8BAD9CADE0
:1055E0000197F1F79CAF8BAF8DAD9EAD01979EAF4C
:1055F0008DAF8DAD9EAD009769F753C2FE01FF964A
:1056000060817181828193810E944900DC01CB011C
:105610009EAF8DAF8DAD9EAD9AAF89AF89AD9AAD7E
:105620000197F1F79AAF89AF3CC2FE01EF51FE4FEF
:1056300080810E94620CDE01AC51BE4FFE01EF5131
:10564000FE4F808180538C93FE01EF51FE4F8FEF10
:105650008083FE01ED51FE4F80810E94E52FFE0107
:10566000EF51FE4F808380E090E0AAE7B3E48DAB7A
:105670009EABAFABB8AF6DA97EA98FA998AD20E066
:1056800030E04AE755E40E941F02DC01CB0189AB00
:105690009AABABABBCAB69A97AA98BA99CA920E05A
:1056A00030E040E85FE30E94250488232CF481E089
:1056B00090E098AB8FA73FC069A97AA98BA99CA954
:1056C00020E03FEF4FE757E40E94C50318164CF562
:1056D0006DA97EA98FA998AD20E030E040E251E4A9
:1056E0000E941F02DC01CB01BC01CD010E944900D8
:1056F000DC01CB0198AB8FA70FC080E991E09EA79A
:105700008DA78DA59EA50197F1F79EA78DA78FA5C3
:1057100098A9019798AB8FA78FA598A9009769F7CB
:1057200014C069A97AA98BA99CA90E944900DC012F
:10573000CB0198AB8FA78FA598A99CA78BA78BA50A
:105740009CA50197F1F79CA78BA780918C028130D3
:1057500009F4B2C1FE01EF51FE4F8081803338F071
:10576000FE01EF51FE4F80818A3308F479C00E9418
:10577000960D83EA91E00E946D0D80E090E0AAEF23
:10578000B3E48FA398A7A9A7BAA76FA178A589A505
:105790009AA520E030E04AE755E40E941F02DC01B0
:1057A000CB018BA39CA3ADA3BEA36BA17CA18DA1B8
:1057B0009EA120E030E040E85FE30E9425048823BA
:1057C0002CF481E090E09AA389A33FC06BA17CA157
:1057D0008DA19EA120E03FEF4FE757E40E94C50353
:1057E00018164CF56FA178A589A59AA520E030E0A0
:1057F00040E251E40E941F02DC01CB01BC01CD015B
:105800000E944900DC01CB019AA389A30FC080E963
:1058100091E098A38F8F8F8D98A10197F1F798A3AE
:105820008F8F89A19AA101979AA389A389A19AA18F
:10583000009769F736C16BA17CA18DA19EA10E9442
:105840004900DC01CB019AA389A389A19AA19E8F6B
:105850008D8F8D8D9E8D0197F1F79E8F8D8F21C13C
:10586000FE01EF51FE4F80810E94620CDE01AB51C0
:10587000BE4FFE01EF51FE4F808180538C93FE019D
:10588000EF51FE4F8FEF8083FE01EC51FE4F808180
:10589000882F90E09C01220F331FC901880F991FA8
:1058A000880F991F820F931F982FDE01AA51BE4FB8
:1058B000FE01EB51FE4F8081890F8C9380E40E94A2
:1058C000740E80E090E0A8E4B3E4898F9A8FAB8FE8
:1058D000BC8F698D7A8D8B8D9C8D20E030E04AE7FE
:1058E00055E40E941F02DC01CB018D8B9E8BAF8B98
:1058F000B88F6D897E898F89988D20E030E040E8EF
:105900005FE30E94250488232CF481E090E09C8BC7
:105910008B8B3FC06D897E898F89988D20E03FEF0A
:105920004FE757E40E94C50318164CF5698D7A8D30
:105930008B8D9C8D20E030E040E251E40E941F02FC
:10594000DC01CB01BC01CD010E944900DC01CB018F
:105950009C8B8B8B0FC080E991E09A8B898B898916
:105960009A890197F1F79A8B898B8B899C8901978A
:105970009C8B8B8B8B899C89009769F714C06D89F0
:105980007E898F89988D0E944900DC01CB019C8B18
:105990008B8B8B899C89988B8F878F8598890197B2
:1059A000F1F7988B8F87FE01EA51FE4F80810E94AC
:1059B000740E0E94960D85E092E00E946D0D80E0CD
:1059C00090E0AAEFB3E48B879C87AD87BE876B8599
:1059D0007C858D859E8520E030E04AE755E40E9475
:1059E0001F02DC01CB018F839887A987BA876F815B
:1059F000788589859A8520E030E040E85FE30E9461
:105A0000250488232CF481E090E09E838D833FC0A1
:105A10006F81788589859A8520E03FEF4FE757E4CD
:105A20000E94C50318164CF56B857C858D859E8577
:105A300020E030E040E251E40E941F02DC01CB0193
:105A4000BC01CD010E944900DC01CB019E838D8306
:105A50000FC080E991E09C838B838B819C810197AF
:105A6000F1F79C838B838D819E8101979E838D832B
:105A70008D819E81009769F714C06F817885898533
:105A80009A850E944900DC01CB019E838D838D8124
:105A90009E819A83898389819A810197F1F79A83FC
:105AA0008983FE01EA51FE4F8081882329F4809189
:105AB0008C02882309F495CBFE01E252FE4F88E068
:105AC000808380918C02813011F00C9456220C94CA
:105AD000AF161F920F920FB60F9211248F939F93C0
