:100000000C942A000C9447000C9447000C94470071
:100010000C9447000C9447000C9447000C94470044
:100020000C9447000C9447000C94520D0C9447001C
:100030000C9447000C9447000C9447000C94470024
:100040000C9447000C9447000C9447000C94470014
:100050000C94470011241FBECFE5D8E0DEBFCDBF12
:1000600011E0A0E6B0E0EAE4FCE102C005900D92E8
:10007000AA36B107D9F711E0AAE6B1E001C01D9296
:10008000AE36B107E1F70E94C80B0C94230E0C9416
:100090000000EF92FF920F931F937B018C0120E0F1
:1000A00030E040E05FE40E94C50388238CF0C80183
:1000B000B70120E030E040E05FE40E94C1010E940F
:1000C000F5039B01AC01205030404040504806C031
:1000D000C801B7010E94F5039B01AC01B901CA0137
:1000E0001F910F91FF90EF900895A0E0B0E0EBE733
:1000F000F0E00C94EC0DDC012B01FA019C919230A4
:1001000008F439C1EB018881823008F433C194309E
:1001100069F4843009F02FC111969C91119789815F
:10012000981709F428C1A0E6B0E025C1843009F48D
:1001300021C18230A9F4923009F01DC19A01AD01AC
:1001400088E0EA010990AE01E90109929E0181501F
:10015000C1F7E201898111969C918923818308C1AD
:10016000923009F407C112962D903C901397EB0141
:100170008A819B811496AD90BD90CD90DC901797AD
:10018000EC80FD800E811F819101281B390BB90184
:1001900037FF04C066277727621B730B6032710537
:1001A0000CF061C0121613066CF537014801062EDB
:1001B00004C096948794779467940A94D2F721E0C8
:1001C00030E040E050E004C0220F331F441F551FB1
:1001D0006A95D2F721503040404050402E213F21B7
:1001E00040235123211531054105510521F021E01E
:1001F00030E040E050E079018A01E628F72808293C
:1002000019293CC0232BD1F1260E371E350146019A
:10021000062E04C096948794779467940A94D2F734
:1002200021E030E040E050E004C0220F331F441FC3
:10023000551F6A95D2F721503040404050402A2146
:100240003B214C215D21211531054105510521F04E
:1002500021E030E040E050E059016A01A628B728CB
:10026000C828D9280BC0821593052CF01C01AA249C
:10027000BB24650103C0EE24FF24870111969C91E5
:10028000D20111968C91981709F445C0992339F041
:10029000A80197012A193B094C095D0906C0A6016E
:1002A00095012E193F09400B510B57FD08C01182D3
:1002B0003382228224833583468357831DC081E0A5
:1002C00081833382228288279927DC01821B930B4A
:1002D000A40BB50B84839583A683B7830DC0220F2F
:1002E000331F441F551F24833583468357838281E0
:1002F000938101979383828324813581468157813D
:10030000DA01C9010197A109B1098F5F9F4FAF4F72
:10031000BF4328F30BC0918333822282EA0CFB1C7B
:100320000C1D1D1DE482F5820683178383E0808304
:10033000248135814681578157FF1AC0C901AA27F8
:1003400097FDA095BA2F81709070A070B0705695EF
:10035000479537952795822B932BA42BB52B848318
:100360009583A683B7838281938101969383828349
:10037000DF0101C0D201CD01CDB7DEB7E2E10C94BF
:10038000080EA0E2B0E0E7ECF1E00C94F80D698310
:100390007A838B839C832D833E834F835887E9E048
:1003A000EE2EF12CEC0EFD1ECE010196B7010E943F
:1003B000E6058E010F5E1F4FCE010596B8010E9423
:1003C000E6058A8991E089278A8BC701B801AE01C9
:1003D000475E5F4F0E9475000E941105A096E6E0FF
:1003E0000C94140EA0E2B0E0E8EFF1E00C94F80DEC
:1003F00069837A838B839C832D833E834F835887C5
:10040000F9E0EF2EF12CEC0EFD1ECE010196B701A6
:100410000E94E6058E010F5E1F4FCE010596B801C2
:100420000E94E605C701B801AE01475E5F4F0E941A
:1004300075000E941105A096E6E00C94140EA0E24F
:10044000B0E0E5E2F2E00C94EC0D69837A838B83F3
:100450009C832D833E834F835887CE010196BE0136
:10046000675F7F4F0E94E605CE010596BE016F5E75
:100470007F4F0E94E6059985923088F08989823005
:10048000C8F0943019F4823051F404C0843029F457
:10049000923081F480E690E0C6C0923049F420E0CA
:1004A0009A858A89981321E02A87CE010996BBC0D4
:1004B000823049F420E09A858A89981321E02A8BBA
:1004C000CE014196B0C02D843E844F8458886D88FB
:1004D0007E888F88988CEE24FF248701AA24BB2471
:1004E000650140E050E060E070E0E0E0F0E0C10174
:1004F00081709070892BE9F0E60CF71C081D191D1E
:100500009A01AB012A0D3B1D4C1D5D1D80E090E062
:10051000A0E0B0E0E614F7040805190520F481E036
:1005200090E0A0E0B0E0BA01A901480F591F6A1F8E
:100530007B1FAA0CBB1CCC1CDD1C97FE08C081E0F5
:1005400090E0A0E0B0E0A82AB92ACA2ADB2A3196B6
:10055000E032F10549F0660C771C881C991C569412
:10056000479437942794C3CFFA85EA892B893C892D
:100570008B859C85280F391F2E5F3F4F17C0CA01FE
:1005800081709070892B61F016950795F794E79428
:1005900080E090E0A0E0B0E8E82AF92A0A2B1B2BC3
:1005A00076956795579547952F5F3F4F77FDE7CF36
:1005B0000CC0440F551F661F771F17FD4160EE0CDE
:1005C000FF1C001F111F21503040403090E05907A0
:1005D00090E0690790E4790760F32B8F3C8FDB0193
:1005E000CA018F779070A070B07080349105A1051A
:1005F000B10561F447FD0AC0E114F10401051105DC
:1006000029F0405C5F4F6F4F7F4F40781A8EFE1786
:1006100011F081E08A8F4D8F5E8F6F8F78A383E01A
:10062000898FCE0149960E941105A096E2E10C94B3
:10063000080EA8E1B0E0EFE1F3E00C94F40D69835B
:100640007A838B839C832D833E834F835887B9E0C5
:10065000EB2EF12CEC0EFD1ECE010196B7010E948F
:10066000E6058E010F5E1F4FCE010596B8010E9470
:10067000E6052985223008F47EC03989323010F42D
:10068000B8017CC08A859A8989278A87243011F02D
:10069000223031F4231709F06EC060E670E06EC0BE
:1006A000343039F41D861E861F86188A1C861B86E8
:1006B00004C0323021F484E08987B7015FC02B8504
:1006C0003C858B899C89281B390B3C872B87ED84C3
:1006D000FE840F851889AD88BE88CF88D88CEA142F
:1006E000FB040C051D0540F4EE0CFF1C001F111F40
:1006F000215030403C872B8720E030E040E050E044
:1007000080E090E0A0E0B0E460E070E0EA14FB0478
:100710000C051D0540F0282B392B4A2B5B2BEA18C2
:10072000FB080C091D09B695A79597958795EE0CC2
:10073000FF1C001F111F6F5F7F4F6F31710531F775
:10074000DA01C9018F779070A070B0708034910584
:10075000A105B10561F427FD0AC0E114F10401050A
:10076000110529F0205C3F4F4F4F5F4F20782D87B8
:100770003E874F87588BBE01675F7F4FCB010E943A
:1007800011056896EAE00C94100EA8E1B0E0EBECDD
:10079000F3E00C94F80D69837A838B839C832D831B
:1007A0003E834F83588789E0E82EF12CEC0EFD1E26
:1007B000CE010196B7010E94E6058E010F5E1F4F24
:1007C000CE010596B8010E94E6058985823040F089
:1007D0008989823028F0C701B8010E945E0601C0F5
:1007E0008FEF6896E6E00C94140EACE0B0E0EBEF0F
:1007F000F3E00C94FC0D69837A838B839C83CE0198
:100800000196BE016B5F7F4F0E94E6058D818230AD
:1008100061F1823050F1843021F48E81882351F1CE
:100820002EC02F81388537FD20C06E812F313105D4
:100830001CF06623F9F023C08EE190E0821B930B3D
:1008400029853A854B855C8504C056954795379533
:1008500027958A95D2F76623B1F05095409530954B
:1008600021953F4F4F4F5F4F0EC020E030E040E0FA
:1008700050E009C02FEF3FEF4FEF5FE704C020E0EB
:1008800030E040E050E8B901CA012C96E2E00C9457
:10089000180EA8E0B0E0EFE4F4E00C94F40D7B0156
:1008A0008C01611571058105910519F482E0898338
:1008B00060C083E089838EE1C82ED12CDC82CB829C
:1008C000ED82FE820F831887C801B7010E94C2041F
:1008D000FC013197F7FF3BC0222733272E1B3F0B2C
:1008E00057016801022E04C0D694C794B794A79408
:1008F0000A94D2F740E050E060E070E081E090E0E0
:10090000A0E0B0E004C0880F991FAA1FBB1F2A9562
:10091000D2F70197A109B1098E219F21A023B1230C
:100920000097A105B10521F041E050E060E070E0E2
:100930004A295B296C297D294D835E836F837887E3
:100940008EE190E08E1B9F0B9C838B8312C03097AF
:1009500081F00E2E04C0EE0CFF1C001F111F0A9424
:10096000D2F7ED82FE820F831887CE1ADF0ADC826F
:10097000CB821A82CE0101960E9411052896EAE0E8
:100980000C94100EEF92FF920F931F937B018C013A
:1009900080E0E81680E0F80681E0080780E01807AC
:1009A00088F48FEFE816F1040105110531F028F005
:1009B00088E090E0A0E0B0E017C080E090E0A0E028
:1009C000B0E012C080E0E81680E0F80680E008079A
:1009D00081E0180728F088E190E0A0E0B0E004C0D2
:1009E00080E190E0A0E0B0E020E230E040E050E0C4
:1009F000281B390B4A0B5B0B04C016950795F7941F
:100A0000E7948A95D2F7F701E859FF4F8081281BB8
:100A1000310941095109C9011F910F91FF90EF90D0
:100A20000895DF92EF92FF920F931F93FC01E480F1
:100A3000F58006811781D1808081823048F480E082
:100A400090E0A0E1B0E0E82AF92A0A2B1B2BA5C010
:100A5000843009F49FC0823021F4EE24FF24870102
:100A600005C0E114F1040105110519F4E0E0F0E01E
:100A700096C0628173819FEF623879070CF05BC08A
:100A800022E83FEF261B370B2A3131052CF020E0FE
:100A900030E040E050E02AC0B801A701022E04C0B7
:100AA00076956795579547950A94D2F781E090E03F
:100AB000A0E0B0E004C0880F991FAA1FBB1F2A95B1
:100AC000D2F70197A109B1098E219F21A023B1235B
:100AD0000097A105B10521F081E090E0A0E0B0E031
:100AE0009A01AB01282B392B4A2B5B2BDA01C90168
:100AF0008F779070A070B07080349105A105B1051A
:100B000039F427FF09C0205C3F4F4F4F5F4F04C0AF
:100B1000215C3F4F4F4F5F4FE0E0F0E02030A0E01E
:100B20003A07A0E04A07A0E45A0710F0E1E0F0E03D
:100B300079018A0127C06038710564F5FB01E1582D
:100B4000FF4FD801C7018F779070A070B0708034CC
:100B50009105A105B10539F4E7FE0DC080E490E0F0
:100B6000A0E0B0E004C08FE390E0A0E0B0E0E80EC9
:100B7000F91E0A1F1B1F17FF05C016950795F7944E
:100B8000E794319687E016950795F794E7948A9550
:100B9000D1F705C0EE24FF248701EFEFF0E06E2FC0
:100BA000679566276795902F9F77D794DD24D79414
:100BB0008E2F8695492F462B582F5D29B701CA01E4
:100BC0001F910F91FF90EF90DF900895FC01DB01E2
:100BD000408151812281622F6F7770E0221F22278E
:100BE000221F9381892F880F822B282F30E0991F95
:100BF0009927991F11969C93119721153105A9F5F5
:100C0000411551056105710511F482E037C082E894
:100C10009FEF13969C938E9312979A01AB0167E016
:100C2000220F331F441F551F6A95D1F783E08C9321
:100C30000DC0220F331F441F551F12968D919C919A
:100C40001397019713969C938E931297203080E010
:100C5000380780E0480780E4580758F314962D932E
:100C60003D934D935C93179708952F3F310579F489
:100C7000411551056105710519F484E08C930895BF
:100C800064FF03C081E08C9312C01C9210C02F57E8
:100C9000304013963C932E93129783E08C9387E019
:100CA000440F551F661F771F8A95D1F770641496FD
:100CB0004D935D936D937C93179708951F93DC017B
:100CC000FB019C91923008F447C08081823008F487
:100CD00043C0943051F411961C91843099F5818170
:100CE000682F70E0611B71093FC0843021F09230A1
:100CF00031F48230B9F18181882389F12DC01196B8
:100D00001C9111978230F1F081811817D9F4129655
:100D10002D913C911397828193818217930794F0D0
:100D200028173907BCF014968D919D910D90BC91B8
:100D3000A02D2481358146815781281739074A071C
:100D40005B0718F4112341F00AC082179307A40728
:100D5000B50740F4112319F061E070E005C06FEFB2
:100D60007FEF02C060E070E0CB011F910895DF9338
:100D7000CF93CDB7DEB7A7E2B0E0E7E2F0E0808145
:100D800080648C93A7E2B0E0E7E2F0E080818068C5
:100D90008C93A6E2B0E0E6E2F0E0808180688C937C
:100DA000A6E2B0E0E6E2F0E0808181608C93A6E20A
:100DB000B0E0E6E2F0E0808182608C93CF91DF9139
:100DC0000895DF93CF9300D000D0CDB7DEB7A6E271
:100DD000B0E0E6E2F0E0808180648C93E6E2F0E04F
:100DE000808182958F70882F90E08170907000973D
:100DF000A9F3A6E2B0E0E6E2F0E0808180618C93A6
:100E0000E4E2F0E08081882F90E09C838B83E5E230
:100E1000F0E08081882F90E0982F88279A8389833B
:100E200029813A818B819C81822B932B9A838983A0
:100E300089819A810F900F900F900F90CF91DF9141
:100E40000895DF93CF93CDB7DEB727970FB6F89409
:100E5000DEBF0FBECDBF89836A834B838981843017
:100E600008F0EEC08A81883008F0EAC08B818130BA
:100E700009F06FC08981282F30E03F832E838E8157
:100E80009F818130910549F12E813F8122303105CA
:100E90002CF48E819F81009761F0D2C02E813F811A
:100EA0002230310571F18E819F8183309105E9F106
:100EB000C7C0AAE3B0E0EAE3F0E08081482F8A816E
:100EC000282F30E081E090E0022E02C0880F991FA9
:100ED0000A94E2F7842B8C93B3C0A7E3B0E0E7E376
:100EE000F0E08081482F8A81282F30E081E090E077
:100EF000022E02C0880F991F0A94E2F7842B8C936C
:100F00009FC0A4E3B0E0E4E3F0E08081482F8A8151
:100F1000282F30E081E090E0022E02C0880F991F58
:100F20000A94E2F7842B8C938BC0A1E3B0E0E1E359
:100F3000F0E08081482F8A81282F30E081E090E026
:100F4000022E02C0880F991F0A94E2F7842B8C931B
:100F500077C08B81882309F073C08981282F30E006
:100F60003D832C838C819D818130910559F12C81A9
:100F70003D81223031052CF48C819D81009769F0F0
:100F80005FC02C813D812230310589F18C819D81AA
:100F90008330910509F440C053C0AAE3B0E0EAE30E
:100FA000F0E08081482F8A81282F30E081E090E0B6
:100FB000022E02C0880F991F0A94E2F780958423BD
:100FC0008C933EC0A7E3B0E0E7E3F0E08081482FD8
:100FD0008A81282F30E081E090E0022E02C0880F45
:100FE000991F0A94E2F7809584238C9329C0A4E387
:100FF000B0E0E4E3F0E08081482F8A81282F30E0E0
:1010000081E090E0022E02C0880F991F0A94E2F757
:10101000809584238C9314C0A1E3B0E0E1E3F0E079
:101020008081482F8A81282F30E081E090E0022ED5
:1010300002C0880F991F0A94E2F7809584238C934D
:1010400027960FB6F894DEBF0FBECDBFCF91DF91CC
:101050000895DF93CF93CDB7DEB727970FB6F894F7
:10106000DEBF0FBECDBF89836A834B838981843005
:1010700008F0EEC08A81883008F0EAC08B818823AE
:1010800009F074C08981282F30E03F832E838E8140
:101090009F818130910559F12E813F8122303105A8
:1010A0002CF48E819F81009769F0D2C02E813F8100
:1010B0002230310589F18E819F818330910509F4B9
:1010C00040C0C6C0ABE3B0E0EBE3F0E08081482F66
:1010D0008A81282F30E081E090E0022E02C0880F44
:1010E000991F0A94E2F7809584238C93B1C0A8E3FA
:1010F000B0E0E8E3F0E08081482F8A81282F30E0DB
:1011000081E090E0022E02C0880F991F0A94E2F756
:10111000809584238C939CC0A5E3B0E0E5E3F0E0E8
:101120008081482F8A81282F30E081E090E0022ED4
:1011300002C0880F991F0A94E2F7809584238C934C
:1011400087C0A2E3B0E0E2E3F0E08081482F8A812B
:10115000282F30E081E090E0022E02C0880F991F16
:101160000A94E2F7809584238C9372C08B8181303E
:1011700009F06EC08981282F30E03D832C838C815B
:101180009D818130910549F12C813D8122303105CD
:101190002CF48C819D81009761F05AC02C813D8197
:1011A0002230310571F18C819D8183309105E9F107
:1011B0004FC0ABE3B0E0EBE3F0E08081482F8A81E1
:1011C000282F30E081E090E0022E02C0880F991FA6
:1011D0000A94E2F7842B8C933BC0A8E3B0E0E8E3E9
:1011E000F0E08081482F8A81282F30E081E090E074
:1011F000022E02C0880F991F0A94E2F7842B8C9369
:1012000027C0A5E3B0E0E5E3F0E08081482F8A81C4
:10121000282F30E081E090E0022E02C0880F991F55
:101220000A94E2F7842B8C9313C0A2E3B0E0E2E3CC
:10123000F0E08081482F8A81282F30E081E090E023
:10124000022E02C0880F991F0A94E2F7842B8C9318
:1012500027960FB6F894DEBF0FBECDBFCF91DF91BA
:101260000895DF93CF9300D000D00F92CDB7DEB7B3
:101270008A836B8319828A81843008F06CC08B81E9
:10128000883008F068C08A81282F30E03D832C83A5
:101290004C815D814130510541F18C819D818230CD
:1012A000910534F42C813D812115310561F055C043
:1012B0004C815D814230510551F18C819D8183309B
:1012C0009105B9F14AC0E9E3F0E08081282F30E0D0
:1012D0008B81882F90E0A90102C0559547958A958A
:1012E000E2F7CA018170898338C0E6E3F0E08081CB
:1012F000282F30E08B81882F90E0A90102C05595FE
:1013000047958A95E2F7CA018170898326C0E3E395
:10131000F0E08081282F30E08B81882F90E0A901B8
:1013200002C0559547958A95E2F7CA018170898375
:1013300014C0E0E3F0E08081282F30E08B81882F1B
:1013400090E0A90102C0559547958A95E2F7CA0138
:101350008170898302C08FEF898389810F900F90FC
:101360000F900F900F90CF91DF910895DF93CF935F
:1013700000D000D0CDB7DEB789836A8389818430FD
:1013800008F072C08A81883008F06EC08981282FE9
:1013900030E03C832B838B819C818130910549F126
:1013A0002B813C81223031052CF48B819C8100976C
:1013B00061F05AC02B813C812230310571F18B8163
:1013C0009C8183309105E9F14FC0ABE3B0E0EBE3E2
:1013D000F0E08081482F8A81282F30E081E090E082
:1013E000022E02C0880F991F0A94E2F784278C937B
:1013F0003BC0A8E3B0E0E8E3F0E08081482F8A81B9
:10140000282F30E081E090E0022E02C0880F991F63
:101410000A94E2F784278C9327C0A5E3B0E0E5E3C4
:10142000F0E08081482F8A81282F30E081E090E031
:10143000022E02C0880F991F0A94E2F784278C932A
:1014400013C0A2E3B0E0E2E3F0E08081482F8A819C
:10145000282F30E081E090E0022E02C0880F991F13
:101460000A94E2F784278C930F900F900F900F90BF
:10147000CF91DF910895DF93CF9300D0CDB7DEB742
:1014800089836A8389816A8141E00E9421070F90E4
:101490000F90CF91DF910895DF93CF9300D0CDB718
:1014A000DEB789836A8389816A8141E00E942908C5
:1014B0000F900F90CF91DF910895DF93CF9300D0DD
:1014C000CDB7DEB789836A8389816A8140E00E9453
:1014D00029080F900F90CF91DF910895DF93CF935C
:1014E00000D0CDB7DEB789836A8389816A810E9483
:1014F000B6090F900F90CF91DF910895DF93CF93AE
:1015000000D0CDB7DEB789836A8389816A810E9462
:1015100031090F900F90CF91DF910895DF93CF9312
:10152000CDB7DEB781E064E041E00E94210781E0B1
:1015300065E041E00E94210781E067E041E00E9410
:10154000210781E066E040E00E942107ADE2B0E0C3
:10155000EDE2F0E0808180618C93ADE2B0E0EDE2FD
:10156000F0E0808181608C93ADE2B0E0EDE2F0E0EC
:10157000808180648C93ADE2B0E0EDE2F0E08081A8
:10158000877F8C93CF91DF910895DF93CF93CDB771
:10159000DEB781E066E041E00E94210781E064E07F
:1015A00040E00E94210781E065E040E00E942107C1
:1015B00081E067E040E00E942107ADE2B0E0EDE2AB
:1015C000F0E080818F7E8C93ADE2B0E0EDE2F0E060
:1015D000808180648C93CF91DF910895DF93CF93C6
:1015E0000F92CDB7DEB78983EFE2F0E08981808387
:1015F000EEE2F0E080818823DCF7EFE2F0E080812A
:101600000F90CF91DF910895DF93CF93CDB7DEB7E1
:10161000ECE5F0E08EE48083A3E5B0E0E3E5F0E004
:10162000808188608C93A3E5B0E0E3E5F0E0808101
:101630008F7B8C93A3E5B0E0E3E5F0E080818160EF
:101640008C93A3E5B0E0E3E5F0E080818D7F8C939F
:10165000A3E5B0E0E3E5F0E0808184608C937894CA
:10166000A9E5B0E0E9E5F0E0808182608C93CF915C
:10167000DF910895DF93CF93CDB7DEB7A3E5B0E058
:10168000E3E5F0E080818E7F8C93A3E5B0E0E3E5B5
:10169000F0E080818D7F8C93A3E5B0E0E3E5F0E09E
:1016A00080818B7F8C93CF91DF910895DF93CF93CF
:1016B000CDB7DEB7ECE5F0E080E88083A3E5B0E0ED
:1016C000E3E5F0E0808180648C93A3E5B0E0E3E59E
:1016D000F0E0808188608C937894A3E5B0E0E3E546
:1016E000F0E0808180628C93A9E5B0E0E9E5F0E06C
:1016F000808181608C93A3E5B0E0E3E5F0E0808138
:1017000081608C93A3E5B0E0E3E5F0E080818D7F1C
:101710008C93A3E5B0E0E3E5F0E0808184608C93F6
:10172000CF91DF9108950F931F93DF93CF9300D054
:1017300000D0CDB7DEB769837A838B839C830CE5B9
:1017400010E069817A818B819C8120E030E048EC57
:1017500052E40E941903DC01CB01BC01CD0120E061
:1017600030E040E853E40E941F02DC01CB01BC01E1
:10177000CD010E944900DC01CB01F80180830F906C
:101780000F900F900F90CF91DF911F910F910895BF
:10179000DF93CF9300D000D0CDB7DEB70E94B7065D
:1017A0000E94040B0E94C50A83E062E00E943B0A8B
:1017B00083E063E00E943B0A83E064E00E943B0A0E
:1017C00083E065E00E943B0A83E066E00E943B0AFA
:1017D00083E067E00E943B0A8FEF8A838FEF898363
:1017E0008FEF90E00E94EE0A8A838A81282F30E0F2
:1017F0003C832B838B819C818232910509F40EC13D
:101800002B813C81233231050CF042C08B819C81BD
:101810008331910509F4A5C02B813C812431310528
:10182000F4F48B819C818130910509F406C12B81F0
:101830003C812230310534F48B819C81009709F47E
:101840001CC1CECF2B813C812131310509F45DC013
:101850008B819C818231910509F46DC0C1CF2B81B0
:101860003C812531310509F4BEC08B819C818531D5
:1018700091050CF48CC02B813C812631310509F493
:101880009CC08B819C818132910509F4C2C0A8CF94
:101890002B813C812233310509F4E0C08B819C818E
:1018A00083339105CCF42B813C812432310509F43A
:1018B000BFC08B819C81843291050CF4B4C02B8114
:1018C0003C812532310509F4BFC08B819C81813375
:1018D000910509F4BEC084CF2B813C8124333105AE
:1018E00009F4C6C08B819C81843391050CF4BBC084
:1018F0002B813C812533310509F4C6C08B819C8145
:101900008034910509F4C5C06BCF83E064E00E9488
:101910007E0A882311F4198208C083E064E00E94E3
:101920007E0A813011F481E089838981882F90E0DB
:101930000E94EE0A55CF83E065E00E947E0A88236C
:1019400011F4198208C083E065E00E947E0A8130AC
:1019500011F481E089838981882F90E00E94EE0A4A
:101960003FCF83E066E00E947E0A882311F419824B
:1019700008C083E066E00E947E0A813011F481E0B5
:1019800089838981882F90E00E94EE0A29CF83E025
:1019900067E00E947E0A882311F4198208C083E060
:1019A00067E00E947E0A813011F481E08983898199
:1019B000882F90E00E94EE0A13CF83E062E00E943D
:1019C0007E0A882311F4198208C083E062E00E9435
:1019D0007E0A813011F481E089838981882F90E02B
:1019E0000E94EE0AFDCE83E063E00E947E0A882317
:1019F00011F4198208C083E063E00E947E0A8130FE
:101A000011F481E089838981882F90E00E94EE0A99
:101A1000E7CE83E064E00E944C0AE2CE83E065E01A
:101A20000E944C0ADDCE83E066E00E944C0AD8CECC
:101A300083E067E00E944C0AD3CE0E94040B83E04F
:101A400062E00E944C0ACCCE83E063E00E944C0A24
:101A5000C7CE83E064E00E945D0AC2CE83E065E009
:101A60000E945D0ABDCE83E066E00E945D0AB8CEAA
:101A700083E067E00E945D0AB3CE0E943A0B83E0E8
:101A800062E00E945D0AACCE83E063E00E945D0AE2
:101A9000A7CE8FEF90E00E94EE0A909369018093A9
:101AA00068019ECE1F920F920FB60F9211242F93B2
:101AB0003F934F935F936F937F938F939F93AF93D6
:101AC000BF93EF93FF93DF93CF93CDB7DEB78091B2
:101AD0006C018F5F80936C0180916C018A3008F4F7
:101AE00068C010926C010E94E106CC01A0E0B0E059
:101AF000BC01CD010E944904DC01CB01BC01CD0138
:101B000020E030E040E85EE30E941F02DC01CB01F0
:101B1000BC01CD010E944900DC01CB0190936B0117
:101B200080936A0180916801909169019C012F5F07
:101B30003F4F80916A0190916B018217930740F0AB
:101B400083E062E00E944C0A81E080936D0131C025
:101B500080916801909169019C01215030408091F1
:101B60006A0190916B012817390738F083E062E031
:101B70000E945D0A10926D011CC020916A01309193
:101B80006B0180916801909169012817390789F4E8
:101B900080916D01813029F483E062E00E944C0A5B
:101BA00008C080916D01882321F483E062E00E94E7
:101BB0005D0ACF91DF91FF91EF91BF91AF919F911E
:101BC0008F917F916F915F914F913F912F910F90E6
:101BD0000FBE0F901F9018952F923F924F925F92D9
:101BE0006F927F928F929F92AF92BF92CF92DF922D
:101BF000EF92FF920F931F93CF93DF93CDB7DEB792
:101C0000CA1BDB0B0FB6F894DEBF0FBECDBF099425
:101C10002A88398848885F846E847D848C849B847C
:101C2000AA84B984C884DF80EE80FD800C811B818A
:101C3000AA81B981CE0FD11D0FB6F894DEBF0FBEB9
:0A1C4000CDBFED010895F894FFCF29
:101C4A000000000000000000000102020303030379
:101C5A000404040404040404050505050505050532
:101C6A000505050505050505060606060606060612
:101C7A0006060606060606060606060606060606FA
:101C8A0006060606060606060707070707070707E2
:101C9A0007070707070707070707070707070707CA
:101CAA0007070707070707070707070707070707BA
:101CBA0007070707070707070707070707070707AA
:101CCA000707070707070707080808080808080892
:101CDA00080808080808080808080808080808087A
:101CEA00080808080808080808080808080808086A
:101CFA00080808080808080808080808080808085A
:101D0A000808080808080808080808080808080849
:101D1A000808080808080808080808080808080839
:101D2A000808080808080808080808080808080829
:101D3A000808080808080808080808080808080819
:0A1D4A000808080808080808180037
:00000001FF
